:100000004D424E014D34485054010400010000009F
:100010006000000000C000000000000000000000C0
:100020000000320100000000000000000004000099
:1000300001005401010024000004000000900000B1
:100040000200220125002A00009400000018000090
:10005000030022012B002F0000AC00000014000060
:100060000038002021020000000000000000000015
:100070000000000000000000000000000000000080
:100080000000000000000000000000000000000070
:10009000000000000000000000000000550000000B
:1000A00057000000450100006D00000081000000C5
:1000B00000000000FEE7034B01221A70024B0022F1
:1000C000DA7770470000002008000050034B01223F
:1000D0005A70A0230022DB051A7070470000002030
:1000E000034B01229A70A0230022DB059A7070470F
:1000F000000000208D23013B002B01D0C046FAE711
:10010000044B10221B78DBB21807C00F13401843B2
:100110007047C0462B0000500F4BF7B518261E70D5
:100120000E4BA0271E70FFF7E5FFFF050B4B01AC40
:1001300000252C3760701D703E70FFF7DBFF064B0B
:1001400020703D701D7023786278181C504040006C
:1001500013400343D8B2FEBD2A0000502D000050CA
:100160000023036030B50B601312012B13D104235D
:10017000013B10D3084DD4B25D5D641BF8D4074A2F
:100180009D001268AA58002A05D012190260044A7C
:10019000D35C1C1B0C6030BDCC030000C803000006
:1001A000D003000070B58022D2051379DBB2002B9A
:1001B00019D1294C6360A360284B1289261C251C89
:1001C0001B6892B210361435E260301C291C002BDB
:1001D00006D098472169002932D1E268301C291CD9
:1001E000FFF7BEFF2CE0012B0CD11B4B1869002838
:1001F00026D099685C69A14222DA4C1C9C60137A73
:1002000043541DE0022B16D1134C2369002B17D049
:1002100060686169884213DA1B5C1BBAD360104BBB
:100220001B68002B03D0E268101880B298476368FF
:100230000133636004E0032B02D1074B00229A6074
:10024000C0468023DB0501221A70C04602221A70C4
:1002500000221A7070BDC046000000203800002047
:100260003400002080230222DB05FF321A600421C3
:10027000024AFF31118000221A70704706000040C8
:10028000F0B5A023DB059B68534A1F218DB0DBB27C
:100290001160D12B0BD0D02B01D80133DBB2A022BF
:1002A000D2059168FF20814319439160F1E74B4BE0
:1002B0004B4A191D043B934203D200221A600B1CC7
:1002C000F6E7FFF7CFFF474A8023DB021A80464A52
:1002D0000027093A92B25A809F80C046434ADE887E
:1002E000434D10685268434C0A922A8809ABB6B253
:1002F0001A8123625E810990FFF70EFFA023DB05C0
:10030000DA7C03AB1A7034214D225A7099705A71FD
:1003100048214522D9709A71502199221971D871BA
:100320006362520005AB0597A3611A8007AB0122F7
:100330000797E3615A70304B0697DA892F4B08977D
:100340005F882F4B211C1B8828310B70211C1B0A36
:1003500029310B702B4901235B420B702A482B4932
:1003600003700B702A48211C2E312F3403700B7040
:1003700023702B889E4229D1264B9A4226D0BA421E
:1003800024D1254EF7899F4220D0F689B446234ECA
:100390007788BC451AD1224FF889984216D0FF8938
:1003A000EB889F4212D1174B17481A70120A7388B4
:1003B0000270164A9BB2164813701B0A0370EB8832
:1003C0009BB20B701B0A237000F052F8154B0222EF
:1003D0001A6062B6FEE7C046280000500400002004
:1003E0003C0000200004000000C00000F0BF00003E
:1003F000F8BF00000000002000040000FC93000093
:10040000FE0300002A0000202B0000202C0000200A
:100410002D000020FFFF000000940000FCAB000056
:1004200000AC000000E100E0180000202030407027
:1004300008080C08FFFFFFFFFFFFFFFFFFFFFFFFA4
:10044000FFFFFFFFFFFFFFFFFFFFFFFFFFFFFFFFBC
:10045000FFFFFFFFFFFFFFFFFFFFFFFFFFFF320177
:100460004D344850434F5432000000000000540106
:10047000F0B5CBB002AF03F0EEFC05F06BF9B8625B
:1004800008F0B4FA08F0E2FA08F0F2FF00F0E6FD36
:10049000D04AD14B1A60D14AD14B1A6005F05AF9B3
:1004A0007863052800D1FEE216D8022800D1A3E225
:1004B00007D800282BD0012800D190E27C6BBC62C9
:1004C000ECE77C6B032C00D1DEE2042CF6D105F0C6
:1004D000C7F902F0C9FBE1E27C6B092C00D1F9E21B
:1004E0000AD8062C00D1E7E2082CE7D105F0B8F9CC
:1004F000012002F09FF8E8E27C6B0B2C00D1FEE2B9
:1005000000D2F0E20C2CD9D105F0AAF909E305F0EC
:1005100037F9041E19D00128D0D1B24B786B1B6873
:10052000F865196A1A6979613A61391C02221A62FE
:100530005C311861021C3F2388800B7105F00AFAB8
:100540007B6B3C63FB61FB62AEE00124012C02D0BB
:10055000022C0BD091E0002002F06CF803F08CF834
:10056000C0B205F045FA022001F0D0FE9D4B6C466A
:100570001B687C6258681C681B694443E3189B0035
:100580000A33DB08DB0069463E1CC91AE0368D469B
:10059000301C0021142208F09FFB842040003B1CEB
:1005A00090333A185A60143A9A60391C283ADE603F
:1005B0001A618431143A8C4E4A60143A8A60326867
:1005C00002AD5361894BA4001B682C19FC62546076
:1005D000916115602B331A7869465200131C083359
:1005E000DB08DB00C91A8D4602AC0021201C3C63ED
:1005F00008F072FB05F0AEFA2A1CC178FB6A0020F5
:1006000000F03CFEBC6A002C01D005F029F9784BC3
:1006100000221B681A6005F0E5F9041C03F02CF8B1
:10062000A04204D0201C03F02CF802241CE03C6BF8
:100630003A1C00943B1CF96A90328433281C01F068
:1006400047FD6B4B6B491B68041C1A688A4201D03A
:1006500001321A60002807D105F092F8002803D172
:1006600005F078F80028D6D0326800231360536074
:1006700053619361786ABB62854605F081F8002872
:1006800000D01BE705F066F8002800D15EE715E70B
:10069000022C0FD005F074F8012800D098E105F085
:1006A00059F8002800D093E13C6B012CF0D10220D6
:1006B00001F02CFE6C46FC604A4C6946236800261B
:1006C0001D6858681B694543EB189B000A33DB081B
:1006D000DB00C91A8D4602AA7A6202F00DFC3B1CAF
:1006E0003A1CF43354325A60043A9A60043ADA609D
:1006F000391C043A1A61CC31043A4A60043A8A60DF
:1007000022686C4690695269AD00424392000A32F9
:10071000D208D200A41AA54602ACAAB002A8BC61B5
:10072000AAB0E024E05102AAE420C2512E4A7C6A19
:100730001268651953619161FE64556014603D62F1
:1007400005F008FA7A6AC1783B6A052000F096FD48
:10075000274BB8691B68D96D00F066FABC6AB442D1
:1007600001D005F07DF80020391C6431A223021C61
:100770008E807E660B7105F0EDF81D4B00241B6822
:100780001E606946B96005F02DF900228423DA5114
:1007900084213B1C903349007D181A605A60BA6569
:1007A0003A1C6B61B832104B6A60143AAA601B683D
:1007B000203AEA602C3A2A611D61B86202F05CFFBF
:1007C000BA6A904218D0101C02F05BFF02233B6310
:1007D000E1E0C046B559000038000020315A000061
:1007E00034000020A8030020400000208C100020CE
:1007F0003C000020FFFFFF7F002C6AD1CB4B6946F5
:100800001B6879609A69684651005A6901324A4307
:10081000131C0833DB08DB00C01A854602AD211C1F
:10082000281C08F059FAF96AC14E082906D1336824
:10083000B869D96D00F0F8F9FC6247E0042003F0D4
:1008400019F93368281CD96DBA6905F0A9FE061E8E
:10085000012E10D1052003F00DF9391C6C31221C3A
:10086000A323201C8C80FC660B7105F073F800221A
:10087000341CFA622AE0AF4EB8693368291C5A78F2
:1008800005F066FF3068F96943785B00994206DD40
:10089000052001217A6A3B6A00F0F0FCFC613368B4
:1008A000FA6918780132FA6102F0EBFE02F000FFFB
:1008B0003368587802F0C2FC002002F0F7FCB86AF6
:1008C00002F0DFFE02F018FF0020386379688D46E1
:1008D00059E0984B01241B689878954B1B68586722
:1008E00002F0ACFC052003F09DF83B1CCC330093D8
:1008F000786A396A2A1C283300F086FF386300289A
:1009000041D13C1CE034201CF96A07F045FDF86237
:10091000032802D0072806D012E1201C07F0B6FFFA
:10092000061E2BD008E063681A88D223BE3A92B222
:100930001B019A4222D8182604F030FF0124731EAE
:10094000221C9A401040D84000D1F9E002213C20FE
:10095000C155381C3D223C30D65504F089FE03F0C9
:1009600055F8201C02F05FFC391C00257C310E2359
:100970008D80FD670B71281C2A1CF3E003F046F8FC
:1009800002F0F8FE01246A4B6B491B681A688A4220
:1009900001D001321A60694D00222B681A61BA68D1
:1009A0003B6B9546002B08D104F0EAFE012804D1E8
:1009B00004F0D0FE002800D1E3E62A68002313608B
:1009C0005360136153619361FC68BB62A54661E6A5
:1009D000564B7C691B681C623C691C616EE504F027
:1009E0003FFF04F0B7FE0128FBD007F0DBFF00F06B
:1009F00035FB04F09FFC61E500F0A4FE4F4B1B6843
:100A0000586900F0CBFE04F0DFFD002003F008F988
:100A100003F06CF800F0AAF8002001F00BFE02F0E1
:100A200059FAE8300378002B03D0002004F040F896
:100A300002E0786B01F06AFC04F012FF04F02AFF78
:100A4000032812D006D801280CD0022815D100F0B6
:100A500089FF12E005280ED00AD306280DD102F036
:100A6000BFFB0AE000F0F4FE07E001F00FF804E03D
:100A700004F07CFA01E002F0A1FB04F06BFE022816
:100A8000DCD000F071FE19E504F0EAFE012001F06F
:100A90003DFC04F05FFE0328FBD00FE504F05AFE96
:100AA0000428FBD00AE504F0DBFE00F045FA04F070
:100AB00051FE0528FBD001E504F0D2FE03F000FA58
:100AC00004F048FE0628FBD0F8E404F043FE0828B2
:100AD000FBD0F3E404F0C4FE04F092F804F03AFE14
:100AE0000928FBD0EAE404F0BBFE002002F0C2FFBC
:100AF00003F0A4F804F02EFE0A28F6D0DEE404F099
:100B0000AFFE002002F061FA002002F0B3FF03F014
:100B100095F804F01FFE0B28F6D0012002F055FADC
:100B2000CCE404F017FE0C28FBD0C7E4A803002097
:100B30003C00002090100020FFFFFF7F40000020BD
:100B4000FC6A082C00D019E702F060FF012002F0D7
:100B50006AFB391C00247431A2238C807C670B71E2
:100B6000201C221C04F0F6FE0DE7C046F8B5184D17
:100B70007146281C764603F04AFA164C276802F0A4
:100B80003FFE7865276802F03FFEB865276802F0EF
:100B90003FFEF865276802F03FFE3866276802F0DE
:100BA0008DFE7866276802F09FFE0B4A0B4912689B
:100BB0000968B866D078097C236841431967C22167
:100BC000063249005A50281C311C03F037FAF8BD90
:100BD0000D0B00003C000020901000208C10002025
:100BE000014B18607047C0468C100020014B1868FC
:100BF0007047C0468C100020014B18607047C046FB
:100C000090100020014B18687047C04690100020DB
:100C1000014B18687047C0463C000020014B5868E3
:100C20007047C0463C000020F0B5754685B003957E
:100C3000294D01900F1C281C714603F0E8F9274B41
:100C400000211B680198DA69920008F045F804F069
:100C500081FF0290C478214D002C21D0042002F0A5
:100C600009FF28684269561E009617D383690099C8
:100C7000019E5943C918890071180439013B0BD3EF
:100C8000866856439E190136B600F5590E68AC4683
:100C9000B44465460D60F0E7009AE4E7013CDAE70A
:100CA0002F687D69013D11D3BC69019A261C6E43F2
:100CB0003619B6009619043E013CF3D3029B306806
:100CC000D97807F0F9FE00043060F4E70248039990
:100CD00003F0B4F905B0F0BDC90B0000A803002073
:100CE00038B50B4C7146201C754603F090F9094B42
:100CF000201C1B689A68002A03DD19695218D20F5C
:100D000000E000227933291C1A7003F097F938BDEE
:100D1000810C00003C000020F0B52C4F73468BB0D6
:100D20007146381C019303F072F9294DB6222B68E5
:100D30005200995C1A1C7932002904D1A82149007B
:100D4000595C002901D0002111701478002C20D0AA
:100D5000DA6F03A907921A69002408929B6807AA10
:100D6000099303234B708B707C235B42CB7001266D
:100D70001023201C8C800E700B7104F0EBFD2B688F
:100D8000DA6F022A02DC9219DA6718E0DC67341C99
:100D900015E01A6905A907929B68092008930123A9
:100DA0000B7002234B708B707C235B42CB7007AAC5
:100DB00064238C800B7104F0CDFD2B68DC67381C3C
:100DC000019903F03BF9201C0BB0F0BDB90C0000F9
:100DD0003C00002038B5054C75467146201C03F0D8
:100DE00016F9291C201C03F029F938BD750D0000E7
:100DF00038B5054C75467146201C03F008F9291CCE
:100E0000201C03F01BF938BD910D000038B5054CCE
:100E100075467146201C03F0FAF8291C201C03F0CB
:100E20000DF938BDAD0D000082B0F0B589B0109C51
:100E3000151C0F930693029407900E1C119C02F050
:100E40003DF847793A4B04978279964206D11B6860
:100E500000211A6EAB00D05A03910BE01A68354B93
:100E6000D26D1968731C896803964B43EB180133E4
:100E70009B00D05A0499714349194A00A418238849
:100E8000069E0193019F7318874203D8C61B029FD9
:100E9000BE521CE0029EB61805960027F65F01368A
:100EA00010D01F787EB2B446013601DA013703E074
:100EB0006646002E06DD013F1F7002235B42238041
:100EC00001202FE0069F79180F78002F01D1208094
:100ED0000CE07FB27C1C05D1019E059F301A388042
:100EE000002002E0012F01D1FF2008701978039C37
:100EF000049E079F48B274437D19002805DC029EBA
:100F0000B25E013208D0002906D12A5700203E2ABD
:100F100008DC0131197005E02A57002A01DD01398A
:100F20001970002009B0F0BC08BC02B01847C046D8
:100F30003C000020A8030020F0B571468DB0744637
:100F40004248049403F063F801F0B8FF039004F002
:100F500013FE3F4C3F4B256880202F681E683E499A
:100F600001970006019A013A02921DD36B68013B7A
:100F700017D3019AAF68F46D5743DF197A1C9F00AD
:100F8000F7198037920005971759059ABC461768DC
:100F90006446E71BB84200DA381CB942E7DD391C69
:100FA000E5E7029F0197DDE70A906B4600206C465B
:100FB00098830123237602236376A3767C235B4206
:100FC000E3760B91542306A90AAA237704F0C2FC06
:100FD0001F4F80253B68204F1B6902970193DCB2AD
:100FE0001C4B2D061E68013CE4B2FF2C15D0376E59
:100FF00003980597417A019807F002FE059BA70028
:10100000FA58B76E8900CB59D31A9D4200DA1D1CDD
:10101000029F9F42E7DD0293E5E708A901230B70D9
:1010200002234B708B707C23029C5B420020CB70B0
:101030000AAA6B2388800A950B710B9404F08AFC32
:101040000248049902F0FAFF0DB0F0BDD90E00007D
:10105000A80300203C000020FFFFFF7F37B5114CA4
:101060007146201C754602F0D2FF05F0EBFB02F042
:1010700075FD021E07D16946A923888000900B7177
:1010800004F068FCFEE7084B1B6803CB01F0AAFFE5
:1010900005F0F0FBFFF76AFD291C201C02F0CEFFD3
:1010A00037BDC046FD0F0000A8030020F0B589B091
:1010B00000AF74463861F9606D487146BA607C6073
:1010C00002F0A5FF02F058FF83000A33DB08DB00C3
:1010D0006D46ED1AAD46041C281C7D6102F054FFDC
:1010E00063000833DB08DB006846C01A854602F05F
:1010F00067FF604B6E461A68131CFC33D96A63297C
:1011000006DD012000214042D962186499645962C9
:10111000131CFC33D96A9D6A0131D962632D07DD46
:10112000002101209962404259640121D86359622B
:10113000131CFC33996A986B0131996201280ADD0E
:101140000125A520002140006D4299631552A7207A
:10115000400011521963131CFC33996B01319963E0
:10116000596B01290BDD0125A420002140006D42AF
:1011700059631552A6204000115201211963131C16
:10118000FC33596B00250131596301233B763A4BFF
:10119000391C1B6818311B7980327B76BB7604239F
:1011A000FB7602205B23BD833B7704F0D3FB2B1C33
:1011B000291C013C08D37D69A200AA588918620045
:1011C000B25A9B189BB2F4E72A4D2868AC46021C21
:1011D0004B327861FF3200207C692518A22464001C
:1011E0002E1934688C4200D231603D35FF352C68B1
:1011F0008C4200D9296095889D4200D29380158841
:101200009D4200D913800438051C023A0835E3D109
:10121000604602683D69131CFC335C6A1B6BA100CD
:101220005118FC31486CC96B5B00411A2980A4201D
:10123000A621D31840004900595A1B5AFC68CB1A02
:1012400023800D4BBD681B685B68990068185118B6
:101250000022043A013B04D38C1885588034256061
:10126000F7E70348796802F0E9FEBD4609B0F0BD32
:101270004D1000003C000020A8030020F0B5234ED4
:1012800085B075460291071C7146301C141C0395ED
:10129000019302F0BCFE1E4D00212B68201CDA6871
:1012A000920007F019FD2B6801981A69002192003D
:1012B00007F012FD029D002D0CD0381C02F0DAFB65
:1012C000144B201C1B680199DA6D1B6E05F0A8F801
:1012D000013DF0E7002F0ED10E4B1B68DF6D5E6EF7
:1012E00002F07CFA051C02F083FA311C031C2A1C54
:1012F000381C04F047FC201C0199029A04F05AFDA6
:101300000248039902F09AFE05B0F0BD1D120000DC
:10131000A80300203C000020F0B58FB002AF734658
:10132000B86079608C4871463B6002F070FE8B4B70
:1013300068461A688A4D136892689E1C520056438C
:1013400001335208311C53430831C908C900401AFF
:101350008546013302AC5B00E3187B61814B796900
:101360001B682868D9609C60FA6000213C22083024
:1013700007F0B2FC321C0021201C07F0ADFC2B68EA
:10138000B868191CDA6D08315B6E0090201C04F0FF
:1013900015FE2B68061C78681A6E191C9B6E00904F
:1013A0000831786904F06EFD0643F6B23E612E689E
:1013B000301C311C4431083004F0F0FF6A4A2B68BD
:1013C0001268F0641020115E586B88420EDC122007
:1013D000115E986B884209DB1420115ED86B88423D
:1013E00004DC1621525E1B6C93421FDA00233B85FE
:1013F00028220123D35504F0DFF9002816D104F088
:1014000039F8002812D0564B1B681B68FF2B00DDF3
:10141000FF232920C355381C0221283004F028F965
:10142000524802F041FE01F0FBFDE4E74B4E02257D
:10143000336800211A6858683A769A688023BA7629
:101440005B420132B9832B435200391C7876FB761C
:10145000A2185323012018313B7704F07BFA30683F
:1014600001232022D3550021037CB984222221218B
:10147000CB55D35580235B422B432320C3552421D6
:101480006D23CB55391C012020317A6904F062FAB2
:101490003368282218682921D0555A682A20CA554D
:1014A00099685A1DC155D27F2B20C2551B692C212A
:1014B0002D22CB55D35D7F229343802040422B4386
:1014C00003432D21CB55FB68002201335B00E31859
:1014D000391C012028310093131C04F007FAFFF790
:1014E000FFFBFFF719FC002827D11D4D2B68D86D95
:1014F00002F00EFC2B68D86C02F0E4FA02F098F8C7
:101500003A69002A0DD12B68211C1A1C08325B6F26
:10151000B86804F0B1FB2B6878685A6F796904F0F9
:1015200007FC022001F0C2FE786905F05FFA286826
:101530000024503006F0B4FB00E02C1C094B0022C4
:101540001B6805489A60DA60396802F077FD201C54
:10155000BD460DB0F0BDC046B9120000A803002082
:101560003C000020400000209010002010270000C8
:10157000F7B5254E7146301C754602F048FD05F062
:1015800073F9224CE430236801781A1C6D3212780A
:10159000002902D151B2481C04D100275F60BA4231
:1015A0000DD119E058681A6F904202DA586801307C
:1015B0005860012910D05B6893420DDB012700229F
:1015C0003B1C69460E33101C8A8000920B7104F09C
:1015D000C1F923686D331F7023681A1C6D321278AD
:1015E000002A03D10A4A1268D27804E0012A03D102
:1015F000074A126812795A67586F01F01FFE301CB3
:10160000291C02F01BFDF7BD111500003C00002055
:1016100090100020F0B595B002AF74460E1C7862B1
:10162000714646483A627C6002F0F1FC04F0A4FA8C
:10163000F86005F019F96C4692B03C6002AC92B0CB
:10164000FC6102AC8AB0BC6102AC90B07C6102ACBF
:101650008AB002ADB86088B000214022F8693C61D0
:1016600007F03AFB00214022B86907F035FB002162
:101670002022786907F030FB00214022386907F00A
:101680002BFB02AC281C0021202207F025FB201C8C
:101690000021202207F020FBFA69BB6992B03A636F
:1016A0007A697B633D643B6902ADBA6300214022E5
:1016B000281CFB637C6407F00FFB214C381C22685C
:1016C0002C30516D936D443200922A1C06F00AFBB7
:1016D0002368381C596D2C309B6D2A1C009605F030
:1016E000C3FE381C2C30796A321C3B6A06F0FAF8CB
:1016F0002368786A596D9A6D06F00AFA3C68786A30
:10170000A546311C3A6A05F0A1F9BB680B4CE433DD
:101710001B78002B0AD1FA681379002B06D004F04D
:101720002FF8012802D0012001F07DFD201C7968EE
:1017300002F084FCBD4613B0F0BDC046B5150000F4
:101740003C00002038B5074C7146201C754602F05D
:101750005EFC07F0F9F801F0B7FB291C201C02F031
:101760006DFC38BDE516000038B50B4C7146201CE9
:10177000754602F04CFC07F099F907F0EBF801F020
:10178000A3FB002002F04CFA01F02AFD291C201CCA
:1017900002F054FC38BDC04609170000F0B5194CE2
:1017A000B1B073467146071C07AE201C1425019387
:1017B00002F02DFC2A1C301C002107F08DFA2A1C97
:1017C00002A812AD002107F087FA281C0021282268
:1017D00007F082FA26AB02AA391C0CA80D931CABA9
:1017E0000E9310920F96119505F07EF905F0B0F961
:1017F0000CA805F075FA201C019902F01FFC31B00D
:10180000F0BDC0463D170000F7B5754601950F4D78
:101810000E1C071C7146281C00921C1C02F0F7FBD2
:10182000311C381CFFF778FD061E03D0201CFFF783
:10183000B5FF04E00098211C089AFFF7EBFE281C76
:10184000019902F0FBFB301CFEBDC046A917000049
:10185000F0B589B000AF754671463E48BD6002F0F4
:10186000D6FB3D4D6E462A680ACA5943CA18520033
:101870000832D208D200B61AB5465B00374E5B0874
:1018800032686C467B614B005808E3181362D461E0
:10189000386101F013FB002002F0ECF82A683049AF
:1018A00053680968013B1DD39E001568FE606E1EDB
:1018B0007E60F7D3FE68486E80599668386075433D
:1018C0005D19C86D0135AD002E5838680025864277
:1018D00000DD351A78687E6946439E1976003553D7
:1018E000051CE4E73D6913691D4A6E00361912684C
:1018F000B446013B0CD3966E99007058166E75581D
:101900000021854200DD291A580065462952F0E77A
:10191000FFF760FA104E211C336818681A79387680
:101920007A76BA765A1D1B69D27F381C3B771830FD
:101930000223FA767B7703F0B3FD084D00222B6873
:101940000448DA611A62B96802F078FBBD4609B052
:10195000F0BDC046F1170000A803002040000020A1
:101960003C000020F0B58DB000AF7446714643488E
:10197000FC6002F04CFB01F0A1FA414C6D4623687B
:1019800044CB724393195B000833DB08DB00ED1A8C
:10199000AD46281C7D623B4D69462B685200D861DC
:1019A00050088A181A623862002002F063F8760044
:1019B0002168354A760876000B6810687242BA6171
:1019C0005A1E56438446786A86197E6100205C1E42
:1019D000FC6118D37C694A6804193C61013A0ED352
:1019E00055007D608D683C695D4355196E1CB500DE
:1019F0006646F66DAD592E1C7D686653EEE7BA69F2
:101A0000FB698018E3E73D6A7E6A1F4A0B696C0038
:101A100036191068B4469A00043A013B05D3046EA7
:101A20005900A55866467552F6E7FFF7E1F9144CE0
:101A3000292023682A211A791E682825C255CA55EB
:101A40005A1D1B69EE552C25D27F381CEB557E2381
:101A50005B42796A2B242D262830E255F35503F09A
:101A60001FFD084C002223680448DA611A62F968F5
:101A700002F0E4FABD460DB0F0BDC0460519000005
:101A8000A8030020400000203C000020F0B58FB0EB
:101A900000AF744671466248FC6002F0B8FA01F08B
:101AA0000DFA604D2C6860682168386241430B185C
:101AB000DA1D5B00D2080833D2006846DB08801AC2
:101AC000DB008546F961C01A574BF9696A461B6805
:101AD00056185A6285469E62FA62B8610021101C4F
:101AE000E26807F0F9F82269301C002107F0F4F8E9
:101AF0004E4B3C6A1B686200FC69520878331B78C5
:101B00007A61620052083A61BB62BD6A002D5ED004
:101B1000002001F0AFFF434B44491A680E68536838
:101B2000013B2AD31068411EFAD39568F46D6843CF
:101B30001818013080000059BD69786078697C68A8
:101B4000484318184000405F001BFF2800DDFF20BD
:101B50003D6AFC6A4D437D62C543E418ED170540BC
:101B6000BC60201C7C6A055578697C684843BD6967
:101B7000181840004453081CD5E713693C695D0000
:101B80007D62E018BD69294A400028181668B860CF
:101B90000022023A013B16D3786A356E8118B86884
:101BA00049004C59815E091BFF2900DDFF21F869BE
:101BB000FD6A2D187D60CD43ED172940B8687D681A
:101BC0008452E954E5E7BC6A013CBC629DE7FFF73B
:101BD0001DF9144C3121236832241A7918683025F4
:101BE000CA55E2555A1D1B69E8553420D27FC355AA
:101BF0007F235B423521381CCB553325F96A3030C1
:101C0000EA5503F04DFC084BBC6A1B6804485C6253
:101C10009C62F96802F012FABD460FB0F0BDC046F2
:101C20002D1A0000A8030020400000203C000020E6
:101C3000F0B5774691B0041C0E1CA5487146059777
:101C400002F0E5F903F098FF049004F00DFE23780C
:101C5000A04D002B08D1B23003785A1E9341DBB25D
:101C60000393002B06D001E0012703972B68002285
:101C7000FC3305E02B68FC33DA6DFE2A01DC01320F
:101C8000DA652B68AA21039F490000225A54974223
:101C90005BD15420FF301C5C021C002C08D0185C67
:101CA00040B2022800D0012058540021995475E117
:101CB000A8277F00DC5D1A1CFC32002C0AD001240E
:101CC0005C5403991954D955039F5221FF315F5435
:101CD000176664E1146E002C09DD013C012C01D073
:101CE000146632E0039F176603225A5457E1C2215B
:101CF0004900595808887849884226D07748B42145
:101D000000684900595AC08888421ED8744CD26D68
:101D10002768787C824218DB0EAA1180B521490021
:101D20005B5A039F06A9538001230B7002234B705B
:101D30008B70CB70381C15238F800B7103F00AFE5B
:101D400022682B68927CFC331A66654F3C68E07C05
:101D5000002800D022E103995E4D002900D082E0E6
:101D60002D688023FF33EB5C002B54D0231C2A33D7
:101D70001B78002B4FD02B1C0E91FC339F6FB4238C
:101D80005B00EA5A7B009A53231C2B331978039883
:101D90004B00F618031C994206D05A00B21A023AB8
:101DA000128801338018F6E706F0D4FE0E90A28B5D
:101DB0002B1CFC33904202DADA6F013200E0002281
:101DC000DA67221C2C321278D86F904218DD7C23FF
:101DD00008A900255B420124CB70281C16230EAAFB
:101DE0008D800C700B714C708C7003F0B3FD394B0F
:101DF000281C1B68FC339D67DD6703F0EDFDCEE01A
:101E0000221C2B321278013A974202DA01379F677F
:101E100001E000229A67FC356A6EA37F2D4D9A423D
:101E200019DB00240AA91223201C221C8C800A948E
:101E30000B7103F08FFD2A682948131CFC33996E3F
:101E4000006801319966C07F814204DB9C66AA2349
:101E500002215B00D1542A68A92100234900535470
:101E6000FC32536644E02B681A1CFC321066BF2219
:101E700052009A5C002A3BD0B4267600995B0EAAE9
:101E8000B524118064001B5B0CA9538001230B70E7
:101E900002234B708B70CB70192388800B7103F079
:101EA00059FD2B683A689D5B908BA92149008542BA
:101EB00018D21C5B108D844214D2595C002917D1B2
:101EC000FC33596E927F914212DA013159660FE06C
:101ED000D11B00003C000020FFFF000090100020FC
:101EE0008C10002001225A54FC3300225A669A6654
:101EF0002E4DBF222B6852009A5C002A4ED1049FBF
:101F00003A79002A47D0A82252009C5C002C45D187
:101F1000274E98683768398B7A8BBB8AFF8A00977F
:101F200003F0D2FD36682B68318C728C071C9868E0
:101F3000B38CF68C009603F0C7FD2B68B4225200D8
:101F40009E5A5225B521FF354900BE4202DA5A5A3F
:101F5000824213DB08AA16805B5A0EA95380022323
:101F6000002001264B708B70CB70172388800E7079
:101F70000B7103F0EFFC0D4B1B685E550B4B1B68A0
:101F80005A5D002A0AD0039F002F07D00121A82202
:101F90008A40995403E05221FF315A5401240548E4
:101FA000059902F04BF8201C11B0F0BD3C00002058
:101FB0008C100020D11B0000F0B5764685B003964A
:101FC0003F4E7146051C301C02F021F83D4C522258
:101FD0002368FF32995CB6225200002906D0BF2147
:101FE0004900595C002901D1012199549A5C002AC9
:101FF0005ED0A82234480021520099540268029110
:10200000126A0F1C013A0CD3EE685000805B002866
:10201000F8D07E1C00B2F7B28142F3DA011C0292C2
:10202000F0E7BF2252009A5C0192002A24D1C02618
:1020300076009B5D002B08D0244B1B6803CB04F07B
:1020400041F9204B01981B689855B62322685B0024
:10205000D35C002B10D0012F0ED901231A4E2B7008
:1020600033681B6A013B09D3029EB342FAD0E86889
:102070005A0000211152F5E7002F03D023680022F7
:10208000FC3305E02368FC335A6F032A01DC01327C
:102090005A6723681A1CFC32526F032A0ADDB622E3
:1020A0000021520099540121A8228A40995401E04C
:1020B000FC335A670248039901F0C0FF05B0F0BD38
:1020C000591F00003C000020A80300204000002011
:1020D000F0B5A3B002AF7546B861F96185487146A5
:1020E000BD607A610025FB6001F091FFA6232420EA
:1020F000391C20312A1CBD84C355281C3D6203F0C5
:1021000029FCFFF735FA281C01F08CFC7A4EB4212B
:102110003368B52249005200581899185A6EFEF7D4
:10212000C5FF3368B42252009A5A3C1C683422809E
:10213000B52252009B5A28200222638029210123C4
:10214000C355CA552A202B21C255CA552C22391CE9
:10215000BD850C20D3552831221C03F0FBFB674BB7
:1021600030201B6831221968C15558683221D0557A
:102170009A683320CA55591DC97F1B69C15534213E
:10218000CB5535200423C35533680132DB6D9200F3
:102190009A18391C0092022030312A1C2B1C03F0A3
:1021A000A5FBB869F969FFF7B7F8B861A84203D091
:1021B0007869FFF7F3FA7EE06D468CB03D6102ADC1
:1021C0008CB07D6002AD8AB03D603E1C02AD5436DD
:1021D000FD613D1C4035301CB969142206F07CFDC0
:1021E000281CB969142206F077FDB9692822F8691C
:1021F00006F072FD424B25611B6878683968FD69FD
:102200006060A160E6606561201C1C617969FA6804
:10221000FFF700FA9822D159201CFFF709FD201C76
:10222000FFF7CAFE201C04F05BFD25786C46AB006E
:102230000733DB08DB00E41AA54602AC7C612E1CE8
:102240001224786F035F002B09DD7A69013EFB6F72
:10225000B000610010185918042206F0FBFC023C83
:10226000A31CEED1254B39211B6838245A68186805
:10227000CA559A68E0553A24E2550533DB7F3B2086
:10228000C3557E235B423D20C3551B4B01321B6867
:1022900052009B6D00249A183C21CC550092391CA9
:1022A0007B69032038312A1C03F020FB144B1B6888
:1022B0001C613C69A54601F0A9FB01F05BFA0E4BDD
:1022C0001A68AA235B00D05600F0BEFB041E00D1A2
:1022D000BC690C4B1B681A680B4B9A4202D001F088
:1022E000EFFDFEE70348B96801F0A8FE201CBD46DB
:1022F00021B0F0BD712000003C000020A8030020A8
:1023000040000020B4100020CDCDCDCDF0B59BB065
:1023100002AF74467146F860C148BC6001F077FEB8
:1023200000F0CCFD061C00F0E1FDB86100F0D2FD2C
:10233000BC4B6D461C687861E36800211A1C0E32A4
:10234000D208D200AD1A2269AD460E32D208D200B0
:102350006846801A02AD85467D6202ADBD62727923
:102360009A18131C0E33DB08DB00C01A53000E331F
:10237000DB08DB008546C01A02AD8546C01A3D6207
:1023800002AD854602A8F861386A06F0A5FCE1684E
:102390007279281C521801215200494206F09CFC17
:1023A000E3687279F869D21852009F4906F094FCEC
:1023B0007B69BD65E7331D78E268786A002D0BD034
:1023C000B96906F047FCF0252269BC69AD00B86A1E
:1023D000611906F03FFC07E0291C06F07DFC22692C
:1023E000B86A291C06F078FC402400253C61FD6297
:1023F000B96A786A02F08EFB032001F03BFB894D3D
:1024000000202B6838871A68586834213524CA554B
:10241000E0559A6804243723DC55844C5123382036
:10242000C35523683621CA55DB6D01329200391C31
:102430009A180220343103F08DFA01233C20C35551
:102440002B6800221B7C4021CA533D213E22CB55E4
:10245000D35504253F23DD5540205A23C355236817
:10246000391C1A6E02203C3103F074FAB479013C35
:10247000631C33D07579013D6A1CF8D07379F96912
:102480006343EB185B005A5A694B9A42F3D03A6A9D
:1024900058237A607A65F965DB19694605CB05C171
:1024A000211C7B68786A2A1CFEF7BEFC002803D03A
:1024B000FB6A01339BB2FB627B69386AE7331A78A7
:1024C00073796343EB18002A04D0C15CB869C25C1D
:1024D0008A1800E0C25C796ACA54CCE7F479013CFE
:1024E000601C37D0B1797379FD694B43E3185B0009
:1024F0005A5B4F4B9A42F2D03D6A58207D607D6511
:10250000C019FD698446FD656846624628CA28C030
:10251000221C7B68B86AFEF787FC002803D0FB6AA0
:1025200001339BB2FB627B697279E7331878B1792A
:102530003D6A4A432B19002808D0BD69F0212819AB
:10254000890040189A5C0378D31800E09B5CBD6A50
:102550002B55C4E7334BFC6A1B68DA681B69D31838
:102560009C4206DA3B69013BDBB23B61002B00D0A9
:102570003EE7FD68022D3FD0786AB96A02F0CAFAD8
:10258000002448207C64C453B3794421CB5573792B
:10259000472045224625D355EB55C35D7F210125B4
:1025A0008B4380222B4352421343C35548211D23A2
:1025B000CB55391C7A6A0820443103F0CBF9391C19
:1025C0004C31FC648C800D70F3797F224B708B70E2
:1025D000CB78082093431D4380235B421D43BA6A96
:1025E0001E230B71CD7003F0B5F90D48B96801F0E9
:1025F00025FDBD4619B0F0BDB379013BBCD372795E
:10260000013AFAD371797D6959437C6A8918E818CF
:102610006118F8300C78007820180870F0E7C04690
:10262000AD220000A8030020FFFF00003C000020B6
:10263000FEFF0000F0B5A5B000AF74467146F8612A
:10264000E248FC6001F0E3FCE14C2368DB687B635B
:102650005B0001333B6500F0FFFF2368FF22DB686E
:10266000F865D31A984200DDFB656C46F86D00F002
:10267000FBFF7C653C6D684665002B1C0833DB085E
:10268000DB00C01A85466C46BC6464200024C45339
:102690000123602161226220CB55D355C3557C2391
:1026A0005B426321CB556422B123D355391C3A1CBC
:1026B000201C60315C3203F04DF9F86D796B431AE0
:1026C0009BB2396D8C4205DAB86C620019198152DF
:1026D0000134F6E700246C22C8B2D45301266823E3
:1026E00069216A22C855D055DE55F86402236B2053
:1026F000391CC3556831201CBA6C03F02BF92B1C14
:10270000796D08338D46DB08DB006A46D21A9546A0
:102710006846386301F030FCB861301C00F014FEEC
:10272000211C2822AB4806F0D7FA211C2A1C386B42
:1027300006F0D2FA396D6A4689000B1C0A33DB08B1
:10274000DB00D21AB86995463962D21A6946800010
:10275000F9629546BA623861BC6400213A6AF86A47
:1027600006F0BAFAB86AFF213A6A06F0B5FA002410
:10277000974B7C651B687C6D9B689C424EDA7C6B3A
:10278000F96DE4B2081BC0B2FC6300F07AFF00F000
:1027900043FF00F0CFFDBD6AFC6A0026386D0136AC
:1027A000F217C30F86425341DBB2BB63002B08D143
:1027B000F96BFA6D701A8018C0B200F062FF00F079
:1027C0002BFF3B6968460A33DB08DB00C11A8D46E4
:1027D0006B467861181C7B6401F0D6FB00231A1C41
:1027E000B9698A4205DA786C9100415801325B1868
:1027F000F6E72268934200D923602868834200D21A
:102800002B607969BA6B8D4604350434002A02D1F5
:1028100000F090FDC2E77C6D0134A9E700246E4D05
:102820007C653A6D944219DAF96ABA6AA300C8580D
:10283000D358C01A854206DDF96D7A6B63189B1A6E
:102840007B62051C3C647B6D834200DA786500F096
:1028500065FD396B6300C8520134E2E7786D00F022
:102860005DFD5B4B1B68DB88984206DAFC69012C36
:1028700003D0FC6D7C627C6B3C64584D32232C6829
:102880003A6CFC34A3626423E3620220BB6A824098
:10289000D358002601216063A163181C6662266379
:1028A000BB60FA6300F03AFDF96BFA6AE06388589E
:1028B0002C6800F033FD2B680121A522FC34520066
:1028C000494260649952FC69A72252009E52331C0F
:1028D000012C29D13C6D3F4AA34209DA58003C6BD8
:1028E0001218215A1088884200D211800133F1E772
:1028F0003C6C6300D25ABC6C131CA24200D2231C55
:102900009BB274217022FC6CBB6400200123D35560
:10291000C853712372217322DC55CC550223391C14
:10292000D35570312B4A10E0786D00F0F7FCFC6C49
:1029300080B2391C7831B864012302203A6BC87028
:102940008E800B704C708C70301C03F003F83C6C64
:102950008821CC537C6A8A20C4533C6C8E2166004B
:102960003C6B8C20A619BC6C3388CC53391C80314D
:10297000C35304234B708B700025012002233A1CA3
:102980000870CB70281CB22388328D800B7102F046
:10299000E1FF124CC22123684900595879607868D8
:1029A00031880288914226D906F080F8051C05F08E
:1029B000DDFF0378061C002B12D0012003F00CF879
:1029C0002368C221023649005E5023E0D52500006D
:1029D00090100020E8030020FFFFFF7F3C00002054
:1029E000002D17D1154B1B68DB7C002B12D1012069
:1029F00002F0E6FF0EE08022FF329B5C002B09D044
:102A0000281C02F0E9FF0E4A23681268C22406322D
:102A100064001A51FC69002C0AD17C6AE0B200F013
:102A200030FE0848F96801F009FBBD4625B0F0BD4D
:102A300002F090FE082800D18FE6EEE78C1000200F
:102A400090100020D5250000F0B5834C724691B05F
:102A50007146071C201C039201F0D9FA06F026F8F3
:102A6000051C02F0C5FE7D4BBE22196852008A5C2F
:102A7000061C1C1C824221D000280CD000226B4670
:102A80009A8269463B230B75101C04A90492032506
:102A900002F060FF0EE006A93C23321C88800690FD
:102AA0000B7102F057FFBF2322685B00D55C6B1EE1
:102AB0009D41EDB2BE2321685B00CE5402F0A6FE1C
:102AC0002168BE235B00CA5C061C002A23D17E233A
:102AD000FF33C95C81421ED0002809D008A93923E0
:102AE000101C8A8008920B71022502F033FF0EE061
:102AF0000AA93A23321C88800A900B7102F02AFF3F
:102B0000BF2322685B00D55C6B1E9D41EDB223683C
:102B10007E21FF315E5402F025FE019002F05AFE44
:102B2000032F03D0019A002A04D108E0019B01265B
:102B3000002B4BD0002002F01DFE012646E0BE23F4
:102B400021685B00CB5A019E0293002B3ED1012FDE
:102B500002D0022F04D00FE0381C02F031FF0BE04E
:102B6000029802F02DFF80232268FF33D35C002BF4
:102B700002D0029802F030FF02F01CFFBF23216850
:102B80005B00CB5C071C002283421ED0904209D020
:102B90000CA91123101C8A800C920B71012502F0E4
:102BA000D9FE08E00EA913233A1C88800E900B7101
:102BB00002F0D0FE3D1C01212368C0228A409954B6
:102BC000BF228A409F54002600E0161C05F06EFFCD
:102BD000A8421DD0224B02221B68032D00D00A22DE
:102BE0001A62281C05F05CFF05F030FF002001F0A0
:102BF00017F8002002F0F0FE236880220021FF3247
:102C00009954184A01261168C2220631520099507F
:102C100005F04CFF05F0AAFE0378002B09D002F066
:102C2000D5FE22688023FF33D15C814201D0D0548D
:102C3000012602F007FE041C03F016FE0379A342EE
:102C400000D0047102F0F0FD0348039901F0F6F999
:102C5000301C11B0F0BDC046E92900003C00002046
:102C6000A803002090100020F0B599B000AF754681
:102C7000714680483D6001F0CAF97F4C0921236804
:102C80007E4E1A1C6D3212784A43191C6B3109783A
:102C90009B7952189B09D318FB6200F00FF9236847
:102CA00000201A1C6F329B7912789B09D318BB62E3
:102CB00001F0FEFEB5446D46A2B0FD616D46A2B0C6
:102CC000BD610A266D467D617E637D6BF86A0521D4
:102CD0007A6BADB23D610F2602F0DEF8B86A0521CD
:102CE0007A6B02F0D9F83E633D6BF86A05213A6BC6
:102CF000ADB27D60002602F0DDF8B86A05213A6BBE
:102D000002F0D8F8FE63FD6B05200026684302F050
:102D1000F1F8BE637E623E62574E022330680521A1
:102D20000370F86A00F0ACFE554A0A211268554D4E
:102D300092682B685143DA6D06318B00D45AF969D9
:102D4000BA6B7B6A8C5224B21B197B6233680122F6
:102D50001A70B86A052100F093FE2B68BE6B5B6E9B
:102D60003D6A5B690236E41A2D1980233D62BE6319
:102D70009B009E42D0D12B12FE6B7D690021AB538C
:102D80007D6A002200232C12FE69705A0231001B5A
:102D9000404300B2B860C017F8608020BD68FE688C
:102DA0008000521973418142EED1FE6B1B06120A5C
:102DB000BD6971001A4302366A50FE63082EA2D123
:102DC0003D694026F5537D6842260024F5534C2684
:102DD000F4534A230226DE5501214820492280234C
:102DE000C155D6555B42391C3A1C33434B25201C38
:102DF00048314032EB5502F0ADFD01225021CA5559
:102E00008021542049420425C4530E4352205322AA
:102E1000391C5123C555D655201C50317A69DD55D2
:102E200002F098FD5C23DC5359218023CD5501200D
:102E300058265A225B42391CF055D5555B261D4356
:102E4000201C5831BA69F55502F084FD3D6B0335FD
:102E50003D63422D00D047E77E6B01367E63102E26
:102E600000D032E70348396801F0E8F8BD4619B0F0
:102E7000F0BDC046092C0000D8010020F8FBFFFF80
:102E8000A80300203C000020014B18687047C04692
:102E9000CC010020014B58687047C046CC0100208F
:102EA000014B98687047C046CC0100207047000075
:102EB000014B18607047C0469C100020014B1868F9
:102EC0007047C0469C100020014B18607047C046F8
:102ED00098100020014B18687047C04698100020D9
:102EE000014B18607047C04694100020014B1868D1
:102EF0007047C04694100020014B18687047C046C8
:102F0000D801002010B50D4B00201B78AA2B12D140
:102F10000B4B1C780B4B64B218780B4B40B21978F2
:102F20000A4B20181A780A4B49B21B7840188018AF
:102F3000C01A43425841C0B210BDC0465000020002
:102F4000510002005200020053000200540002002F
:102F5000550002008023DB020022188059809A80ED
:102F6000C046024B188880B27047C0460600040075
:102F700013B5094A042413780021DBB21C430191E4
:102F80000198F421FF31884205DC1370C0461470AB
:102F900001990131F3E713BD0D00005082B000220A
:102FA000019201AB55221A70392252429A700122C5
:102FB000DA70019AA023DB059A6102B07047A02362
:102FC000DB059869C001C00F70470122A023DB0513
:102FD0001040020602499869084010439861704702
:102FE000FFFFFFFE82B00022019201220A408918F1
:102FF00001303F2201AB1040C9B21870481C0231A9
:1030000002408900D9705A70019AA023DB05DA6169
:10301000196A024A0A401A6202B07047FFCFFFFFE6
:103020000002064B000A0138002258609A6005220F
:103030001A60C0461A68D103FCD5704710E000E062
:10304000F0B5564E87B0356805ACE0350427291C2D
:10305000201C3A1C05F0FEFD2B7801211B071B0FDD
:103060000393AB7803981A07120F0292FB40227861
:1030700001930F239A4302432270627801980A4316
:1030800002218A43BA43C7210A406270A278010133
:1030900002989A4302431A400A43ED78A270E278FC
:1030A0002D079A43131C2D0F10222B439343E370DB
:1030B0000599A024E405E160FFF75AFF3368E16851
:1030C000E1331A78364BD206920FD2020B401343EB
:1030D000E360E26880239B001343E360E26880239F
:1030E0009B011343E360029C039EFFF70BFF002844
:1030F00013D02C4F882039781E34C9B205F02AFD30
:1031000039784443C9B2882005F024FD0F36464380
:103110001E3C00230F3E9C4203DB231E0F2B00DDD1
:103120000F230F22964200DD161CA024E405E1685F
:103130001A401D4B12040B401343E360F343E26853
:10314000DB171E400F239A431E401643E660E368D8
:10315000F022934380221343E360E368134E144F3D
:103160003340E360E36813483B40E360FFF758FFF8
:10317000E26880235B051343E360E3682D061F408C
:103180002F43E7600C48FFF74BFF019A1305E268F5
:1031900016401E43E66007B0F0BDC0469810002000
:1031A000FFE7FFFF54000200FFFFF0FFFFFF0FFFEC
:1031B000FFFFFFF0FF0F0000FF6F0000064A074B04
:1031C00012680120D832126819789040021C0A4314
:1031D000D2B21A707047C046D801002029000050B2
:1031E0000549064B09681A78D831096801208840DA
:1031F00082431A707047C046D80100202900005051
:10320000044B1878044B1B68D8331B681841012302
:103210001840704729000050D8010020A023012247
:10322000DB055A707047044B82B0019001AA1880E8
:1032300092789A7002B070472400005007B500F0F1
:1032400015FF064B019001AA188092789A70044BE2
:1032500000221A70034B0122DA7707BD24000050C8
:10326000000000200800005007B500F01DFF064BCD
:10327000019001AA188092789A70044B00221A706B
:10328000034B0122DA7707BD240000500000002024
:1032900008000050034B00221A70034B0122DA771A
:1032A0007047C046000000200800005072B6084B6E
:1032B0001B5C002B03D1C04662B630BFF6E762B696
:1032C000A023DB059968034A0A409A607047C0460C
:1032D00000000020FFFFF9FFA023DB055A68012151
:1032E000120E58689143034A090602400A435A6085
:1032F0007047C046FFFFFFFE08B5074B1B681A1C4E
:10330000F0321278F1331B78520001325043994069
:1033100005F020FC08BDC0469810002008B5044BFD
:103320001B68F333197849000131FFF7E5FF08BD49
:103330009810002008B5A0230120DB055870FFF786
:10334000B5FFFFF7C9FF08BDF0B5644D85B02F6824
:10335000041C391C04280BD1221CCC3103A805F015
:1033600079FC391CD031221C5D4805F073FC27E044
:10337000D431042203A805F06DFC391CA023D831F8
:1033800004225748DE0505F065FCFDF741FC80236B
:10339000FF33C35C002B13D005F088FB05F0E6FA81
:1033A000077971697F224F4B17401940BF04394399
:1033B000716141790A40716992040B401343736152
:1033C000A023DB0558696A460006117B800F1F2287
:1033D00002304001114001436846017303991961AD
:1033E0001E691640FFF78EFD00280AD03E4B88204C
:1033F00019780436C9B205F0ADFB46430023043EFC
:1034000003D4331E1F2B00DD1F23A022D205108AF8
:103410001F210B40884303431382022C14D006DC87
:10342000002C11D0012C2DD12B68F23325E0042C77
:1034300007D024DB052C25D12B680024EC33019325
:1034400020E02B68E93318E0FDF7E2FBB6235B00D0
:10345000C35C002B03D0254B1B685D330DE080233C
:10346000FF33C35C002B06D005F020FB05F07EFA8D
:103470000630019006E02B68EF33019302E02B68E1
:10348000F533FAE7019AA023DB05596910783F224A
:10349000104091430143596101995D6948781F21AA
:1034A00008401349C0022940014359611149640091
:1034B00009680C19211C773108785968104091432C
:1034C000014359607834217858680A4011020A4A49
:1034D00002400A435A6005B0F0BDC0469810002073
:1034E00014000050FFFF03FE540002009C10002057
:1034F000FF07FFFFD8010020FFC0FFFF294BF0B5F9
:103500001A68294B85B01B68F2331B785B069B0E4B
:103510000193931DD97F00238D005519581E5B1808
:10352000002B27D053181B1826331B788024D31860
:103530005E78A023DB055F68E4033C435C60019C8C
:10354000B606240400945F68B60EBC46174F644666
:103550002740009C27435F60C046243676008400E5
:10356000F65A2C19883426605E68114C34405C6031
:10357000031CD3E76F460293BB8101233B72931D6B
:10358000DB7F7F217B72BB72FB7A88328B43042105
:103590000B43FB720F20B02302A93B7302F0DAF950
:1035A00005B0F0BDD801002098100020FFFFC0FF3B
:1035B000FFFFBFFFF0B585B0FFF7A0FF154B00255B
:1035C0001E68B31DDC7F631C9B005B420093A3005D
:1035D000F3180193009B043D9D4208D0019A0121FC
:1035E000571988373868FFF787FE3860F2E76A4670
:1035F00000239381012313720423D372B0235472E6
:1036000094721373321C88320F2002A902F0A2F9BF
:1036100005B0F0BDD8010020044B00225A70A02351
:10362000DB055A7001221A707047C0460000002066
:10363000A023DB059968064A0A40802189020A43D3
:103640009A60044A0021917001229A707047C04626
:10365000FFFFF9FF00000020024B1B680833D86F02
:103660007047C046D8010020024B1B680833D8675A
:103670007047C046D8010020A023DB059868C0B27F
:10368000704730B5A023DB059B68DBB283420ED0C8
:1036900001DA013300E0013BA022D2059568FF2149
:1036A0001C1C8D430C40291C21439160EEE730BD6A
:1036B000A023DB059968802252020A439A60996828
:1036C000094A0A409A609A68120112099A60D968F8
:1036D000064A0A40DA60D968054A0A40DA60D968C1
:1036E000044A0A40DA607047FFFFFFF0FFFEFFFF69
:1036F000FFDFFFFFFFFFFFEF1B4B10B51A68012133
:10370000131CDE331878A023DB059C68084017499A
:103710000004214001439960DF3210789C6814490D
:103720000007000921400143996011789A6809094E
:103730001201090712090A439A60D96880225200CF
:103740000A43DA60D968802292010A43DA60D968B4
:10375000802252050A43DA60C923013B002B01D0C5
:10376000C046FAE710BDC04698100020FFFFFEFFDC
:10377000FFFFFFF010B5A024E405A36800201B01A3
:103780001B09A360E268124B1340E360E268114B2F
:103790001340E360FFF78AFD0F4B1B68DF331A7895
:1037A000A36812091B0112071B091343A360E268F7
:1037B00080235B001343E360E26880239B01134393
:1037C000E360C923013B002B01D0C046FAE710BDDE
:1037D000FFFEFFFFFFDFFFFF98100020034B1B6879
:1037E000F0331878400001307047C0469810002030
:1037F000024B1B68F13318787047C04698100020C0
:1038000000487047001000500048704700200050EA
:103810000048704700400050074B01201B685B794F
:103820009A1C0340D318054A126866321078584330
:10383000034B8000C01870479C100020D801002066
:1038400004400050F7B51B4B051C1C68A3795F1E94
:1038500015D36279013A10D36079561C811C01910D
:10386000012108400199081858433118124889006D
:1038700009180868E8400860ECE73B1CE7E7FFF739
:10388000CBFFA37A002201339C466346013B9C4652
:103890000FD3617A9600019186190023019999420C
:1038A00005D09F00F1590133E940F151F6E7521874
:1038B000EBE7F7BD9C10002000400050074B0120B3
:1038C0001B685B799A1C0340D318054A1268723250
:1038D00010785843034B8000C01870479C1000209C
:1038E000D801002004400050094B01211A68537987
:1038F000D0799A1C0B40D318064A013012686A32FC
:1039000012785343C018044B8000C0187047C0465B
:103910009C100020D801002000400050F7B5374B24
:103920001D682A7853B2042B1ED1354B1B68EB332C
:103930001F78344B196802235E1E5ED34A79013A20
:1039400010D34C79551CA01C019001200440019813
:1039500004195C4328192C4C800000190468FC40B1
:103960000460ECE7331CE7E7002A46D0022B22D1A3
:10397000FDF74EF9B6235B00C35C224C002B02D04E
:1039800023685F3302E01E4B1B68F1331878FFF7A2
:1039900059FF2568EC79002C2FD0FFF7A5FF061CF6
:1039A000013C2AD3697A201C05F02AF989008A593A
:1039B000A300F250F4E7032B03D1114B1B68F7333C
:1039C00018E0012B11D1FFF779FF0E4B061C1B6885
:1039D0005C79013C11D32B193A331B789B00985921
:1039E000FFF79CFCA300F050F3E7052B05D1044B37
:1039F0001B68EE331878FFF725FFF7BDD8010020CC
:103A0000981000209C1000200040005008B5A02312
:103A10000120DB055870FFF749FCFFF75DFCFFF75D
:103A20007DFF08BD70B5041C104E114D11D1012051
:103A3000FFF78AFC336801221A70A023DB056C7043
:103A40005C701A70FFF7E2FFFFF746FCFFF7B2FD6C
:103A50000224201CFFF778FC336800221C70A0238E
:103A6000DB056A705A7001221A7070BDD8010020FF
:103A70000000002008B5FFF7D5FFFFF7C7FF08BD1E
:103A800008B5A023DB05011C58683F221140904374
:103A90000843586059685868114001310A401102C2
:103AA000064A02400A4306495A6000224A705A7088
:103AB00001221A70FFF7AAFF08BDC046FFC0FFFF32
:103AC0000000002010B5A023DB051C6A0005064A93
:103AD000000D010422400A431A621A6A120B1203F3
:103AE0001043186210BDC046FFFF00F0164B13B51F
:103AF0001C68A023DC34211CDB05144804229B68CD
:103B000005F0A8F82478FFF7FDF900280CD0104B39
:103B1000104A1B781278201C52B200925BB210211E
:103B2000D12201F0D1FF2418002C01DA002402E098
:103B3000FF2C00DDFF24084BE0B21B680833DC6774
:103B4000FFF79FFD13BDC0469810002008000050ED
:103B50005300020052000200D801002008B5FFF710
:103B6000C5FFFFF76DFAFFF719FA234BC022920049
:103B700098582249014099509958FF20814340208C
:103B80000143995098581E49014080200004014388
:103B90009950985880210002000A09060143995063
:103BA000012102221A60082019600421196018609E
:103BB000144B00205860144B186901431961134BD2
:103BC0001B68197A124B1B68D833002900D10322D5
:103BD00010491A6000230B700F49A0220B700F4987
:103BE000D2050B709363D36B9B0E9B06D36362B6B7
:103BF00000F082FA08BDC04600E100E0FF00FFFFD0
:103C0000FFFF00FFFCE100E000ED00E09C10002061
:103C1000D801002029000050280000502A00005040
:103C200008B5002801D0012801D100F065FAFFF79E
:103C30005DFFFFF705FAFFF7B1F908BDF0B5214BBD
:103C400013211B680224DA7A0023133AD2B291427C
:103C50005B41E41AA023DB0558693F2259681040F4
:103C60008022D2030A43A3B05A60411EA023C9B2E6
:103C7000DB0502AAFF2910D05F683F26124D0E40D7
:103C800036043D4035435D60C046251C24356D003B
:103C90005D5B4B00D5520139E8E75C680B49214078
:103CA0005960694600238B8001230B700223487002
:103CB0008870CB700320B3230B7101F04BFE23B04F
:103CC000F0BDC0469C100020FFFFC0FFFFFFBFFFFC
:103CD00010B5A020C00544694906E401E409214368
:103CE00041617F210A4044699104074A22400A4306
:103CF0000649426100224A70427001220270002B84
:103D000001D0FFF783FE10BDFFFF03FE000000207F
:103D1000F7B5041C02F096FD124B1A680023506898
:103D2000411C0191019D16689D420CDB976801368C
:103D30007E4399008C469E1900216546B60061516C
:103D400001333151EEE701239E420ADB95680021E1
:103D50005D43AF002D180135AD00395101332951B4
:103D6000F2E7F7BDA8030020044B054900221A60C2
:103D700059609A6005221A607047C04610E000E062
:103D8000FFFFFF0010B5A023DB059C689968E623C0
:103D9000C943C9B25943E403E40F064B0134A040C0
:103DA000C918041C044804F0D5FE011C201C04F0B2
:103DB000D1FE10BD5C5D000040420F00014B0022AF
:103DC0001A60704710E000E030B50D4D0D48AB684B
:103DD00085B0C01A0193FFF7D5FF02A90123002483
:103DE0000B704B708B7004230190CB70201C6F23E1
:103DF00001AA8C800B7101F0ADFD2C6005B030BDC7
:103E000010E000E0FFFFFF00A023DB05D87CC0B27C
:103E100070478023DB0500BA09BAD8601961704782
:103E200037B5051C0424291C221C684604F012FF27
:103E30002919221C01A804F00DFF009980230ABA59
:103E4000DB05DA6001990ABA1A6137BD40BA80B25F
:103E5000704700BA70470023114A12499A188A42E3
:103E600004D21149C95804331160F5E70F4B104AC9
:103E7000191D043B934203D200221A600B1CF6E783
:103E80000C4B0D4A1360EFF308820433191D043BF9
:103E90009A4203D9094818600B1CF7E77047C046DF
:103EA0003C000020BC030020508E0000C003002016
:103EB0008C100020D4100020B4100020CDCDCDCD2A
:103EC000F0B5294D89B029482C6800F0EDF8FFF7CE
:103ED000A7F80026264FBC4222D280373B1B202762
:103EE000832B00DC9F1002A9FAB2012300204A7044
:103EF0008A70BF10221C0B70CB70888001F02AFDE5
:103F0000231C3A1C013A08D3002E04D11949186821
:103F1000884200D01E1C0433F4E7BF00E419D9E73F
:103F20002B6804A9F31A0025019304230124CB7004
:103F3000281CA72301AA8D800C704C708C700B710B
:103F4000843701F007FD06A90420C870A823BE1B12
:103F5000281C01AA8D8001960C704C708C700B711E
:103F600001F0F8FC09B0F0BDB4100020801A060082
:103F700080370020CDCDCDCD024B1B680633D87FD6
:103F80007047C046D801002070B5051CFFF796FCAD
:103F90000A4B1C68A31DDB7F9A00AD180022511E3E
:103FA000D218002A09D0E21852182632127892004C
:103FB00016588A00AE500A1CF1E770BDD8010020E7
:103FC00030B50B4B1B689A1DD27F94001C1953000F
:103FD000C01800230133D11A013107D09D00651BA1
:103FE000883559002D6849424552F3E730BDC04637
:103FF000D8010020A02382B080B2DB05D88502B0B2
:104000007047A023DB05D88D82B002B0704770B531
:10401000051CFEF745FF0468061C013C08D37268C6
:10402000E300D3181A68AA42F7D15B689847F4E70F
:10403000014B013D1D6070BDA010002070B5051C36
:10404000FEF72EFF8468061C013C08D3F268E300EB
:10405000D3181A68AA42F7D15B689847F4E7024B75
:10406000013D1D6070BDC046A010002038B5A023E2
:10407000DB0599689D68C943E623C9B25943084BDB
:10408000041CC918074804F065FD064BED035843AE
:10409000ED0F01352841211C04F05CFD38BDC04600
:1040A0005C5D000040420F0038B5A023DB05996835
:1040B0009C68C943E623C9B25943064B051CC9187D
:1040C000054804F047FD6843E403E40F0134204150
:1040D00038BDC0465C5D000040420F00002801D0A2
:1040E000133907E0122902DD262902DD12394910B1
:1040F00000E000E0081C7047F0B5E24BB1B01B686F
:104100000293DC79002C00D187E153331B78002126
:10411000133BDBB21322081C9A424841C4B20594F7
:10412000022609AC361A1422201C04F0D5FD029D8B
:104130006F7A02982B1ABB4210DA2B1C5333197872
:104140000598FFF7CBFF132800D9CEE3235C013598
:10415000B34200DBC9E301332354EAE7CA4B00252D
:104160001B68291C049363331D70049B88226633EB
:104170001D700EA804F0B0FD291C1422201C04F0B0
:10418000ABFDC24B0EA819684422883104F062FDD1
:10419000022E04D11FA80EA9442204F05BFD0025C5
:1041A000029C0395029D6B7A671B01349F4234DAAF
:1041B000231C52331D780598291CFFF78FFF09AA8D
:1041C000115C6E118C460696112166467143069E5F
:1041D0000EAB89191F263540063101268900AE40F5
:1041E000351CCE583543CD50049D3F23E919061C9C
:1041F0001E40583106968F796646B501069E9F434C
:104200003E431E4063460133039F2E43DBB28E7153
:1042100013549F42C6DA0393C4E7049B039E00270E
:10422000F6B2653306961E70049702970597954B74
:10423000059E1A68937A9E4200DBA1E0059C131943
:10424000583319780123081C20381D1C83408D40E9
:104250009801039CAC468009002C18D0013C4423F3
:1042600063430EAD00265E55EB181D1C1F2905DCAF
:104270005F6A66461E62BB0E9B0606E01E626F6AA0
:104280008301BE0E9B09B60633436B62E4E77E4BA7
:10429000527A1968231C934210DAC818583085796D
:1042A0004426A806AD097543049F800E28180137DF
:1042B0000EADFF18281807710133ECE7734B049E0D
:1042C0001B68B6181A1C8A32893317781D78FF06C6
:1042D000AD060496FF0EAD0EFEF714FE002813D0B7
:1042E0006B4E882031780137C9B204F033FC317845
:1042F0004743C9B2882004F02DFC02354543013FF5
:10430000023D0026781C03D03E1E1F2E00DD1F2616
:104310003F2D01DD3F2502E0EB43DB171D400299F5
:1043200044274F435B4ABF1803998C421EDA44224C
:10433000111C61430EAB5918301C1F231840079005
:10434000887801349843031C079803438B70281C1A
:104350003F231840079048789843031C079803436D
:104360004B70381C04F076FC4437DDE7CB43029CED
:10437000059DDB170B40E41801350294059556E7BF
:10438000414B029F1C68FBB2211C64310B70CB7047
:10439000069D00238B7105310D70517A0EAA8B4258
:1043A0000FDAE018583085794426A806AD09754320
:1043B000049F800E28180137FF1812181771013357
:1043C000ECE7029F44237B439A1A1AAE049200251D
:1043D000039FBD4218DA44276F430EA8C719786AB5
:1043E0000021820E920639627A62301C142204F097
:1043F00073FC0499284A013588188019391C442215
:1044000004F028FC4436E3E7FB43DB17029D3B4006
:10441000EB186834039323700DE01B4D211C2868B2
:104420000422633004F058FC2868211C6730042201
:1044300004F052FC0394134B00211C681322E37A0E
:104440000E1C133BDBB29A424E41F7B2059709A806
:1044500002271422BF1B04F03FFC6679251C2B1B8E
:10446000B3421BDAE97A0598FFF738FE132800D922
:104470003BE209AB1A5C0135BA4200DB35E201329E
:104480001A54ECE79C100020D8010020981000205E
:104490005400020000800050D07F0050A34D0398CC
:1044A0002E680122331C6B331870DA7000218822C9
:1044B0000EA804F011FC0021142209A804F00CFC41
:1044C0009B4B0EA819684422443104F0C3FB022F11
:1044D00004D11FA80EA9442204F0BCFB0027251C10
:1044E00004972F1B0697637901359F423CDAAF7A18
:1044F0000598391CFFF7F2FD09A9095C0EAB029182
:10450000029A44215143091859182A1B0A7179113A
:1045100009AA0791115C11225143079A89188A1D33
:104520001F210F4001219200B9400F1CD1580F43A9
:10453000D750069F3F23F219011C029F1940069194
:10454000BF0151780797069F99430F4307991F4072
:10455000029B0F4357700133049FDBB209AA135427
:104560009F42BEDA0493BCE7049C6D36E4B2012599
:104570000694347002956F4A029B1668013BB2792B
:10458000934200DB82E0F6182836F2790121101CF4
:1045900020380E1C814096408901049DB44689094B
:1045A000002D18D0013D44246C43029F0EA82754CF
:1045B0000419201C0026266220304768BE0EB6066D
:1045C00046601F2A02DC60462062E9E78C01A409EC
:1045D00026434660E4E7564A1268D31845321478F9
:1045E000FF33A4065E7FA40EFEF78CFC002812D0D9
:1045F000514F882039780136C9B204F0ABFA3978C6
:104600004643C9B2882004F0A5FA02344443013E6F
:10461000023C711C03D0351E1F2D00DD1F253F2CD1
:1046200001DD3F2402E0E343DB171C40039E039FB0
:10463000079644267E4341483618039F0798391A47
:10464000049FB9421EDA442251430EAB59188F78A9
:104650001F239F43281C18403B1C03434F788B703B
:104660003F239F43201C18403B1C039F03434B7078
:104670003B2F00DD39E1301C013704F0EBFA443602
:104680000397DAE7029C0134029474E7274B039DF9
:104690001C68029F221CEBB26C321370D370231C77
:1046A000069DFFB272331F70013B1D7009A80021E7
:1046B00014220297002504F00FFBA31DDD77737908
:1046C0009D423DDA7319DF7A0598391CFFF706FD24
:1046D00009AB1B5C0493002B0BD1A31DD97F4A1C93
:1046E0006118DA770731EBB20EAACB7701331118D4
:1046F0000B710EAB1A1812796119944601225242BD
:10470000944462463A310A7079111F2217400631EB
:10471000012294468900BA40171CCA5865441743C1
:10472000049ACF50624409AB1A54C8E7D80100205C
:10473000981000209C1000205400020000800050BF
:10474000D64B1B6845331C78A406A40EFEF7DAFB93
:1047500000280AD0D24B882019780234C9B204F05C
:10476000F9F944430023023C03D4231E3F2B00DD10
:104770003F230EACA2781F218A436178A2703F22AA
:104780009143666A1340029D0B436370B30E25701C
:104790009B06002563621AA8291C1422256204F0D6
:1047A0009BFA039F3B2F00DD9FE044207843BD49E7
:1047B000442240180137211C04F04CFA0397BA4FE9
:1047C00003983E68C7B2331C70331F700D3B1B78D3
:1047D000321C7732311C137057706F3109780B3AE5
:1047E0005173311C7B3197730B701278331C7C33FF
:1047F000301C1A707D30022204F02CFAAB4B1322CD
:104800001B68291C0293DB7A201C133BDBB29A4203
:104810006941CAB206920222521A331C73330492BF
:104820000122DA701F70291C882204F055FA291C15
:10483000142209A804F050FA984B201C196844224D
:1048400004F008FA049D022D04D11FA8211C442263
:1048500004F000FA029C00270497029F029DE71BC8
:1048600005976B7901349F4238DAA57A0698291C9E
:10487000FFF734FC09A90F5C44217943029A0EAB7F
:1048800009185918A21A0A71691109AA0791115C2D
:1048900011225143079A89188A1D1F210D400121B9
:1048A0009200A9400D1CD1580D43D550059D3F23C2
:1048B00072195178051C99438C46B9011D40059128
:1048C00061460D431D40059B01371D435570FFB2E6
:1048D00009AD2F54049DBD42BFDABDE7331C049ED1
:1048E000753300271E70029701E00020D4E0049A7F
:1048F000002A14D0013A442151430EA84118CE6A2F
:1049000000204D6A08628862B00E8006CB78AC0E3B
:10491000C8622020A40603434C62CB70E8E7634BD7
:10492000029A1F68B879BC460590029C059D131B2E
:10493000AB4247DA029C61460B1B9B182F33187859
:1049400051100123061C1940203E1F1CE5B207919F
:10495000B3400499069587401E1C002930D00139C8
:1049600044234B43029C0EAD01345C55069CEB186E
:10497000079D64B20194AC420FD01F2803DC1C6A6F
:104980003C431C62E9E75C6A251C3543AD01A40E7B
:10499000AD09A4062C435C62DFE71F2803DC9C6A98
:1049A0003C439C62D9E71C1CDB6A33439B019B0997
:1049B0000193E36A9D0E019BAD062B43E362CCE7B6
:1049C0000132B2E7354B1B685A195D78FF32AD06EC
:1049D000577FAD0EFEF796FA002813D0304C882092
:1049E00021780137C9B204F0B5F821784743C9B23C
:1049F000882004F0AFF802354543013F023D002412
:104A00007E1C03D03C1E1F2C00DD1F243F263F2DA3
:104A100002DCEE43F6172E40039F44257D432148D8
:104A200005972D18039F0598391A049FB9421FDA7C
:104A3000442251430EAB59188F781F239F43201CEB
:104A400018403B1C03434F788B703F239F43301C1F
:104A500018403B1C039F03434B703C2F00D144E79D
:104A6000281C04F0F7F8039F443501370397D9E772
:104A7000029C01340294022C00D038E70A4B039DBB
:104A80001B68EAB2191C7431181C0A707330007864
:104A90008033C8721A70012031B0F0BD9810002028
:104AA0005400020000800050D80100209C1000201B
:104AB000F8B5164D061C2B68002463331F782B684D
:104AC000E1191A1C643212780134914209DAE319AF
:104AD000442058430E4B311CC018142204F0FCF83B
:104AE000EDE76B331F7800242B68E2196C331B78D9
:104AF00001349A4209DAE31944205843044B311C2B
:104B0000C018142204F0E8F8EEE7F8BDD801002040
:104B1000EC7F0050F0B5374B85B01B6802901A1C33
:104B2000039163321578344A00201168041C8A7A94
:104B300094422BDA021C4F7A161ABE421FDA9E19D3
:104B40005836B679B7090096EF1944267E432B4FA5
:104B5000B4463E1C009F66440196BE06039FB60EF7
:104B6000B446BE5C3F2E00DD3F26F6B20096019EA5
:104B70000132371C6744009E30373E70DBE7181C5B
:104B80006530007801342D18101CD0E71A1C6B32E8
:104B9000147800208A79904229DA00224D79019513
:104BA000AA421EDA9E187678B709E71903974427B8
:104BB0003D1C039FB6067D43AC46104DB60E2F1C20
:104BC000019D674445430397029FBF187D5D3F2DBC
:104BD00000DD3F25039FEDB2BE193036357001323E
:104BE000DCE71A1C6D3212780130A418D2E705B048
:104BF000F0BDC046D80100209C100020008000506D
:104C0000F0B5A24B95B01C686846A379627900AFF5
:104C10005A43131C0E33DB08DB00C01A93000E331B
:104C2000DB08DB008546C01A6D468546FD616D4692
:104C30003D61E3792726191C0E319B00C9080E330C
:104C4000C900DB08401ADB008546C01A6D46854660
:104C5000BD6100216D46F869FD6004F03DF8A3795F
:104C6000627900215A433869920004F035F8E279FC
:104C70000021B86904F030F8E279F8689200002168
:104C800004F02AF80023F3552722D05D7F4E3E28FA
:104C900000D9C8E0FFF70CFF0020FEF7EBFE27214C
:104CA000C95D30687961002283799A4235DA002340
:104CB0004179541C8B422EDA161C4E439E198D1CD2
:104CC000BE600126AC463140614461438919C91870
:104CD0008D006F493E696D182D687D60BD68AD001F
:104CE000A9597D68A94214D27D69FE69B9687554D5
:104CF000417901258E1C0D4075196C4351430134D7
:104D0000E418634EA400A419246859183D69890069
:104D10004C510133CCE7221CC6E7FEF77DFD5B4B0F
:104D200027261B68F65D002278613B60BE607A60D2
:104D30003D687E68AB7A9E421CDAFE6894003519A5
:104D40007E69111C3419002338685A18407A83424E
:104D50000CDA9A00A858A658B04205D2BE69B868C5
:104D60007618F054A658AE500133EDE7796801315A
:104D70007960DDE7012529212A220024CD55D5556A
:104D800028202B23391C3A1CC555DD552C261D2304
:104D9000201C28312732BC85F35500F0DBFD3B4E4B
:104DA0003C633368BC869A793020C2555B793121E7
:104DB0001A1CCB552A400233D31833203222D35544
:104DC000C25D7F218A43042002433321CA55314901
:104DD0009B0051223420C2555A18391C201C3031F6
:104DE00000F0B8FD33683822BC63BC87D555DB7949
:104DF0003B2039253A26F355EB55C35D7F218B4384
:104E000004221343C519391C2B70201C5A23383136
:104E10003C267A69F35500F09DFD2720C35DC1193A
:104E200001330B7030E7391C4031002433683C6497
:104E30008C809A797F250A705B79FA694B708B7048
:104E4000CB780820AB4301252B43CB701D230B717E
:104E500000F080FD391C48313368BC648C800D70D3
:104E6000DB797F264B708B70CB78BA69B3431D43D7
:104E700008201E230B71CD7000F06CFDF869B96934
:104E8000FFF748FEBD4615B0F0BDC0469C1000209F
:104E9000004000500440005044235843044B111C70
:104EA000C018C2780F2319409A430A43C270704752
:104EB0000080005038B5051C141CFEF723F80028AC
:104EC00008D00A4B882019780234C9B203F042FE98
:104ED0004443023C44206843054A3F23801802783B
:104EE0001C409A431443047038BDC046540002006D
:104EF0000180005010B5041CFEF704F8002808D00B
:104F0000084B882019780434C9B203F023FE4443C7
:104F1000043CA023DB05198A1F22144091430C4353
:104F20001C8210BD5400020030B50F4B1B689979EC
:104F3000884203DA1B182833D87914E05A798D187F
:104F4000411AA84202DA5B18D87A0CE09C7A8A1AD5
:104F50002D19A84203DA9B185833187803E0141B64
:104F60001B195033D87830BD9C100020F0B5DA4DB5
:104F700099B02B68A02459799A7900AF8A18597A88
:104F80009B7A5218D3181A1C5A43E405A668BB62D0
:104F9000D31DDB08DB006846C01A85466B46FF213F
:104FA000BB6103F099FEFF20FFF77EF8CB496A460C
:104FB000081AF860B86AF6B2C000031C0E33DB08AA
:104FC000DB00D21A9546BA6A78619200131C0A3344
:104FD000DB086846DB007862C01A85466B463A619A
:104FE0003B6200220023BA63FB63BD4BE2681340BF
:104FF000E3602B685C79B84B013C1B68611C14D0E2
:105000001B19381CD97A5830202203F005FEB86DE0
:1050100060218300C919CB18FA6D283B012118685B
:1050200091400A1C02431A60E5E79C79AA4B013CB7
:105030001B68621C15D01B192833381CD9795830CD
:10504000202203F0E9FDBA6D60209300C019FA6DCB
:10505000C3180121283B91400A1C19680A431A60B1
:10506000E4E75C7A9C4B013C1B68611C15D01B1962
:105070005033381CD9785830202203F0CDFDB86D5C
:1050800060218300C919CB18FA6D283B01211868EB
:1050900091400A1C02431A60E4E79C7A013C621CBE
:1050A00017D08D4B381C1B6858301B195833197892
:1050B000202203F0B1FDBA6D60209300C019FA6D93
:1050C000C3180121283B91400A1C19680A431A6041
:1050D000E4E7FF239E1BE6235E43824C3419BC6049
:1050E000BC69FC6100247C637C6BB86A844200DB91
:1050F000E1E000217A69786A03F0EEFDA024002146
:105100003A69386A03F0E8FDE40500232363636B22
:105110009B0E9B066363BD6BA563F86BF862E36B44
:1051200086019B0EB6099B063343E3636420FEF7BA
:10513000BBFFFDF775FF786BFFF7F6FEC1B2381CB9
:105140005030202203F068FDB96BFA6B7B6D396437
:105150007A643A6D0121994060200B1CC0199100BE
:105160004118081C203802689A430260386D131CED
:1051700000280AD028390A6853409A01636B9209C3
:105180009B0E9B061343636301E06B402363A024E3
:10519000E405A563E36B0A209B0E9B061E43E663B2
:1051A000FEF782FFFDF73CFFE26B8023DB04134335
:1051B000E363396CFA6A4D40A5637B6C01265A4063
:1051C000E36B92019B0E92099B061343E363FEF788
:1051D000CBFD7C6C3D6C7B6AA446434AFC689168BD
:1051E000A14214DB414A64461068526828402240BC
:1051F0005C68944203D3F0D11C688442EDD23C6ACF
:10520000DA60B2009860A15001360833E5E7FEF796
:10521000D5FDA023DB05D96B354A0A40DA63012EA0
:1052200041D0741E786AE4000419013E002E3AD081
:10523000231C083B1A6821685B6891436268BD6A59
:105240009A43B300B964FA64013DFB627A6B9542FC
:1052500027D0281CFFF768FE011C381C583020227C
:1052600003F0DAFCFB6D0122B86D9A406021131C3B
:10527000C91982008A18183A12681A420FD0FB6ABC
:105280003A6AB968D258154B1A489B1A3B6303F027
:1052900061FC011C386B03F00FFCF9694855013DB6
:1052A000D4E7083CC1E77C6BB86A01347C63FC69D5
:1052B0002418FC6118E7C3B2381C583003704370DF
:1052C00083700023C3700371B9690123437100F037
:1052D000E7F8BD4619B0F0BD9C100020FFFFFF00AD
:1052E000FFFF0FFF5C5D000010E000E04000005099
:1052F000FFFFFFFB40420F00014B18607047C046A4
:10530000A8100020014B18687047C046A810002064
:10531000014B18607047C046A4100020014B18686C
:105320007047C046A4100020014B18687047C04663
:10533000DC010020F7B5334F73467146381C0193EA
:10534000FEF765FEFBF752FC009001F07BFA061CAD
:10535000FDF7B4FD2C4D1022041C0099286803F0C1
:1053600079FC32882B68381C1A74120A5A74B28875
:105370009A74120ADA74254A12680532D27F002A1A
:1053800003D0A2791A75627902E062791A75A2795E
:105390005A75E2799A751E4A6B6812881A70120A59
:1053A0005A701C4A52889A70120ADA701A4A528845
:1053B0001A71120A5A71194AD2889A71120ADA714C
:1053C000174AAB68920A1A70164A920A5A70164A1D
:1053D000920A9A70154A920ADA70154A920A1A715C
:1053E000144A920A5A71144A920A9A71134A0199FC
:1053F000920ADA71A023DB05DA7C6B691A70FEF77A
:105400001DFEF7BDD5520000E0010020A8030020DA
:10541000FE030000FC930000FCAB0000F8BF00009E
:1054200000000000000400000004000000940000E0
:105430000094000000AC000000AC000000C00000C0
:10544000F7B50A4C7146061C201C7546FEF7DFFDB9
:10545000074A694681CA81C16B46B600F658201CCE
:10546000291CFEF7EBFD301CFEBDC046E1530000D9
:10547000388D000070B5084C7146201C7646FEF74A
:10548000C6FD064B201CDB69311C5D78EDB2FEF7D2
:10549000D5FD281C70BDC04615540000E001002059
:1054A000F8B5144D041C0F1C281C71467646FEF7F7
:1054B000AEFD114BFF215A6A117010499C620F60BA
:1054C000A0782778596B474320793F1860794006C8
:1054D000400E784308609869A0210170D969281CA2
:1054E0001378FF2B02D10B78022BF9D0311CFEF779
:1054F000A5FDF8BD41540000E00100200405002096
:1055000038B50D4C7146201C7546FEF780FD0B4AE0
:10551000D1694B780A49DBB20B72012B05D0022B03
:1055200005D1936901225A7001E0FDF747FE291C5D
:10553000201CFEF783FD38BDA1540000E0010020CF
:105540000405002038B50D4C7146201C7546FEF749
:105550005EFD0B4BDB68002B0BD00A4ADBB2106CF4
:105560007F21194048320170937001335370FFF767
:10557000C7FF291C201CFEF761FD38BDE554000063
:1055800004050020E001002038B50C4C7146201CB9
:105590007546FEF73CFD0A4B1B7A012B06D0022B09
:1055A00006D1084B00229B695A7001E0FDF718FEF6
:1055B000291C201CFEF742FD38BDC04629550000BD
:1055C00004050020E0010020F7B5254E7346301C8D
:1055D00071460193FEF71BFD224C0025224E337AC3
:1055E000012B07D0002B25D0022B24D11F4B9B6908
:1055F0005D7820E0FDF704FE051C002C0CD1FDF7C2
:10560000EFFD2E23FF33013B002B01D0C046FAE70C
:10561000FDF7D4FD134C0BE0124A944208D0002849
:1056200006D12E23FF33013B002B01D0C046FAE701
:10563000013C00E01D1C0D4FFA695378327A9A4202
:1056400006D0FFF7A1FFFB69074A5B78137201E000
:10565000002DC3D102480199FEF7F0FCF7BDC0460A
:1056600069550000FFFF000004050020E001002054
:10567000F7B5164D7346071C0E1C281C7146019386
:10568000FEF7C5FCFFF7A0FF114C8022236C5242AD
:105690001978606C0A431A70391C321C03F0DAFA6C
:1056A000236CF6B218787F229043311C1140021C03
:1056B0000A431A704834A670FFF722FFFFF784FFF1
:1056C000281C0199FEF7BAFCF7BDC0461156000030
:1056D000E0010020F8B5FBF789FA01F0B3F8FDF717
:1056E000EDFB194C656B03F025F96860FFF722FEAE
:1056F000164DE36B2A681088020A5A711871FFF779
:105700009FFEE36BC6B29E712B6801365F6803375C
:105710004743381C00F0E9F93A1C0021051C2064BD
:1057200003F0DAFA231C4833013500225E70656409
:105730009A7003F0F9F8064B5860A023DB059A7CB9
:10574000E36C1A70F8BDC046E0010020A8100020EC
:1057500004050020024BDB691878C0B27047C046D0
:10576000E0010020024BDB699878C0B27047C04668
:10577000E0010020014BDB6998707047E0010020D8
:10578000024BDB69D878C0B27047C046E001002008
:10579000014BDB69D8707047E0010020014BDB69E9
:1057A00058687047E0010020024BDB695A68586076
:1057B0007047C046E0010020024BDB69187AC0B296
:1057C0007047C046E0010020014BDB69187270474A
:1057D000E0010020024BDB69587AC0B27047C04636
:1057E000E0010020014BDB6958727047E0010020A6
:1057F000024BDB69D87AC0B27047C046E001002096
:10580000014BDB69D8727047E0010020024BDB6975
:10581000987AC0B27047C046E0010020014BDB69B6
:1058200098727047E0010020024BDB69187BC0B220
:105830007047C046E0010020014BDB6918737047D8
:10584000E0010020024BDB69587BC0B27047C046C4
:10585000E0010020014BDB6958737047E001002034
:10586000034BA0229B691A701A78A02AFCD07047BB
:10587000E0010020034BC2B29B691A701A78824281
:10588000FCD07047E0010020014B5B6A1870704744
:10589000E0010020024B5B6A1878C0B27047C04636
:1058A000E0010020014B1B6818887047A8100020F9
:1058B00008B5FFF789FE024B0022DA6008BDC0463A
:1058C0000405002070B5074B074CDA6BE668011C35
:1058D0009579586C2A1C8019751903F0BBF9E5609D
:1058E00070BDC046E00100200405002073B56C4681
:1058F000E271164A0734556D2E78864224D1FF2076
:1059000028701366131C94331B6820789B688000F2
:105910009165D46518710E4B06980C7818608878DC
:10592000536B60430C79497900194906490E41438C
:1059300019609169A0230B70516DD2690B78FF2B10
:1059400002D11378002BF9D073BDC046E0010020CE
:105950000405002070B5144C636B1D79EDB2012D68
:1059600021D1854058781E78000230439E78360455
:105970003043DE7836063043284214D0FF201871B9
:105980000A48A16302608C780D78C9786C43490697
:10599000490E074A6143506B92690160772111708B
:1059A0001A79FF2AFCD070BD600200200405002097
:1059B000E0010020014BDB6B18787047600200208B
:1059C000014BDB6B1870704760020020014BDB6BF2
:1059D0005878704760020020014BDB6B58707047AD
:1059E00060020020014BDB6B98787047600200205A
:1059F000014BDB6B9870704760020020014BDB6B42
:105A0000D878704760020020014BDB6BD87070477C
:105A100060020020002303600B601B4BF7B59A4225
:105A200030DC1312194C122B1BD89B00E418646E47
:105A3000002C27D0E368013B5D1C23D0D5B2019533
:105A400065681E1CEF5C019D013BED1BF4D42768CB
:105A5000B300DB59002B15D05B190360A3689B5D75
:105A60000EE0A36B266B013B0CD35D00755B551BF1
:105A7000F9D4E66A9B00F25852190260626BD3585F
:105A80005D1B0D60F7BDC046FFEF0000E001002088
:105A9000C02208B5D2000B4B904206D19B691A7800
:105AA000052A0DD005221A700AE01B6C84221B788F
:105AB00092005B065B0E9B18984201D1FFF764FDD4
:105AC00008BDC046E001002038B5051C1C1C181C90
:105AD0008D4209DB0498954206DAC01A6D1A6843B4
