:100000004D424E014D3448505101040001000000A2
:100010006000000000C000000000000000000000C0
:100020000000320100000000000000000004000099
:1000300001005101010024000004000000900000B4
:100040000200120125002A000094000000180000A0
:10005000030012012B002F0000AC00000014000070
:100060000038002021020000000000000000000015
:100070000000000000000000000000000000000080
:100080000000000000000000000000000000000070
:10009000000000000000000000000000550000000B
:1000A00057000000450100006D00000081000000C5
:1000B00000000000FEE7034B01221A70024B0022F1
:1000C000DA7770470000002008000050034B01223F
:1000D0005A70A0230022DB051A7070470000002030
:1000E000034B01229A70A0230022DB059A7070470F
:1000F000000000208D23013B002B01D0C046FAE711
:10010000044B10221B78DBB21807C00F13401843B2
:100110007047C0462B0000500F4BF7B518261E70D5
:100120000E4BA0271E70FFF7E5FFFF050B4B01AC40
:1001300000252C3760701D703E70FFF7DBFF064B0B
:1001400020703D701D7023786278181C504040006C
:1001500013400343D8B2FEBD2A0000502D000050CA
:100160000023036030B50B601312012B13D104235D
:10017000013B10D3084DD4B25D5D641BF8D4074A2F
:100180009D001268AA58002A05D012190260044A7C
:10019000D35C1C1B0C6030BDCC030000C803000006
:1001A000D003000070B58022D2051379DBB2002B9A
:1001B00019D1294C6360A360284B1289261C251C89
:1001C0001B6892B210361435E260301C291C002BDB
:1001D00006D098472169002932D1E268301C291CD9
:1001E000FFF7BEFF2CE0012B0CD11B4B1869002838
:1001F00026D099685C69A14222DA4C1C9C60137A73
:1002000043541DE0022B16D1134C2369002B17D049
:1002100060686169884213DA1B5C1BBAD360104BBB
:100220001B68002B03D0E268101880B298476368FF
:100230000133636004E0032B02D1074B00229A6074
:10024000C0468023DB0501221A70C04602221A70C4
:1002500000221A7070BDC046000000203800002047
:100260003400002080230222DB05FF321A600421C3
:10027000024AFF31118000221A70704706000040C8
:10028000F0B5A023DB059B68534A1F218DB0DBB27C
:100290001160D12B0BD0D02B01D80133DBB2A022BF
:1002A000D2059168FF20814319439160F1E74B4BE0
:1002B0004B4A191D043B934203D200221A600B1CC7
:1002C000F6E7FFF7CFFF474A8023DB021A80464A52
:1002D0000027093A92B25A809F80C046434ADE887E
:1002E000434D10685268434C0A922A8809ABB6B253
:1002F0001A8123625E810990FFF70EFFA023DB05C0
:10030000DA7C03AB1A7034214D225A7099705A71FD
:1003100048214522D9709A71502199221971D871BA
:100320006362520005AB0597A3611A8007AB0122F7
:100330000797E3615A70304B0697DA892F4B08977D
:100340005F882F4B211C1B8828310B70211C1B0A36
:1003500029310B702B4901235B420B702A482B4932
:1003600003700B702A48211C2E312F3403700B7040
:1003700023702B889E4229D1264B9A4226D0BA421E
:1003800024D1254EF7899F4220D0F689B446234ECA
:100390007788BC451AD1224FF889984216D0FF8938
:1003A000EB889F4212D1174B17481A70120A7388B4
:1003B0000270164A9BB2164813701B0A0370EB8832
:1003C0009BB20B701B0A237000F052F8154B0222EF
:1003D0001A6062B6FEE7C046280000500400002004
:1003E0003C0000200004000000C00000F0BF00003E
:1003F000F8BF00000000002000040000FC93000093
:10040000FE0300002A0000202B0000202C0000200A
:100410002D000020FFFF000000940000FCAB000056
:1004200000AC000000E100E0180000202030407027
:1004300008080C08FFFFFFFFFFFFFFFFFFFFFFFFA4
:10044000FFFFFFFFFFFFFFFFFFFFFFFFFFFFFFFFBC
:10045000FFFFFFFFFFFFFFFFFFFFFFFFFFFF320177
:100460004D344850434F5432000000000000510109
:10047000F0B5CBB002AF03F00CFD05F089F9B8621E
:1004800008F0F6FA08F024FB08F0F2FF00F0DEFDB9
:10049000D04AD14B1A60D14AD14B1A6005F078F995
:1004A0007863052800D1F6E216D8022800D19BE235
:1004B00007D800282BD0012800D188E27C6BBC62D1
:1004C000ECE77C6B032C00D1D6E2042CF6D105F0CE
:1004D000E5F902F003FCD9E27C6B092C00D1F1E2D2
:1004E0000AD8062C00D1DFE2082CE7D105F0D6F9B6
:1004F000012002F0E3F8E0E27C6B0B2C00D1F6E285
:1005000000D2E8E20C2CD9D105F0C8F901E305F0DE
:1005100055F9041E19D00128D0D1B24B786B1B6855
:10052000F865196A1A6979613A61391C02221A62FE
:100530005C311861021C3F2388800B7105F028FA9A
:100540007B6B3C63FB61FB62AEE00124012C02D0BB
:10055000022C0BD091E0002002F0B0F803F0BEF8BE
:10056000C0B205F063FA022001F014FF9D4B6C4607
:100570001B687C6258681C681B694443E3189B0035
:100580000A33DB08DB0069463E1CC91AE0368D469B
:10059000301C0021142208F0E1FB842040003B1CA9
:1005A00090333A185A60143A9A60391C283ADE603F
:1005B0001A618431143A8C4E4A60143A8A60326867
:1005C00002AD5361894BA4001B682C19FC62546076
:1005D000916115602B331A7869465200131C083359
:1005E000DB08DB00C91A8D4602AC0021201C3C63ED
:1005F00008F0B4FB05F0CCFA2A1CC178FB6A002095
:1006000000F034FEBC6A002C01D005F047F9784BAD
:1006100000221B681A6005F003FA041C03F05EF860
:10062000A04204D0201C03F05EF802241CE03C6BC6
:100630003A1C00943B1CF96A90328433281C01F068
:100640008BFD6B4B6B491B68041C1A688A4201D0F6
:1006500001321A60002807D105F0B0F8002803D154
:1006600005F096F80028D6D0326800231360536056
:1006700053619361786ABB62854605F09FF8002854
:1006800000D01BE705F084F8002800D15EE715E7ED
:10069000022C0FD005F092F8012800D090E105F06F
:1006A00077F8002800D08BE13C6B012CF0D10220C0
:1006B00001F070FE6C46FC604A4C694623680026D7
:1006C0001D6858681B694543EB189B000A33DB081B
:1006D000DB00C91A8D4602AA7A6202F047FC3B1C75
:1006E0003A1CF43354325A60043A9A60043ADA609D
:1006F000391C043A1A61CC31043A4A60043A8A60DF
:1007000022686C4690695269AD00424392000A32F9
:10071000D208D200A41AA54602ACAAB002A8BC61B5
:10072000AAB0E024E05102AAE420C2512E4A7C6A19
:100730001268651953619161FE64556014603D62F1
:1007400005F026FA7A6AC1783B6A052000F08EFD32
:10075000274BB8691B68D96D00F05EFABC6AB442D9
:1007600001D005F09BF80020391C6431A223021C43
:100770008E807E660B7105F00BF91D4B00241B6803
:100780001E606946B96005F04BF900228423DA51F6
:1007900084213B1C903349007D181A605A60BA6569
:1007A0003A1C6B61B832104B6A60143AAA601B683D
:1007B000203AEA602C3A2A611D61B86202F08EFF8D
:1007C000BA6A904218D0101C02F08DFF02233B63DE
:1007D000D9E0C046F1590000380000206D5A0000F1
:1007E00034000020A80300204000002088100020D2
:1007F0003C000020FFFFFF7F002C6AD1C74B6946F9
:100800001B6879609A69684651005A6901324A4307
:10081000131C0833DB08DB00C01A854602AD211C1F
:10082000281C08F09BFAF96ABD4E082906D13368E6
:10083000B869D96D00F0F0F9FC6247E0042003F0DC
:100840001DF93368281CD96DBA6905F0C3FE061E70
:10085000012E10D1052003F011F9391C6C31221C36
:10086000A323201C8C80FC660B7105F091F80022FC
:10087000341CFA622AE0AB4EB8693368291C5A78F6
:1008800005F080FF3068F96943785B00994206DD26
:10089000052001217A6A3B6A00F0E8FCFC613368BC
:1008A000FA6918780132FA6102F01DFF02F032FF96
:1008B0003368587802F0F4FC002002F029FDB86A91
:1008C00002F011FF02F04AFF0020386379688D467C
:1008D00051E0944B01241B689878914B1B68586732
:1008E00002F0DEFC052003F0A1F83B1CCC330093A2
:1008F000786A396A2A1C283300F07EFF38630028A2
:1009000039D1381CE030F96A07F0CAFDF8620328D3
:1009100004D0072800D00BE1182605E0381CE03091
:1009200007F0F6FF061E21D004F056FF0124731EC7
:10093000221C9A401040D84000D1F9E002213C200E
:10094000C155381C3D223C30D65504F0AFFE03F0B3
:1009500061F8201C02F099FC391C00257C310E2323
:100960008D80FD670B71281C2A1CF3E003F052F800
:1009700002F032FF01246A4B6B491B681A688A42F5
:1009800001D001321A60694D00222B681A61BA68E1
:100990003B6B9546002B08D104F010FF012804D1D1
:1009A00004F0F6FE002800D1EBE62A68002313606D
:1009B0005360136153619361FC68BB62A54669E6AD
:1009C000564B7C691B681C623C691C6176E504F02F
:1009D00065FF04F0DDFE0128FBD008F025F800F0EB
:1009E00035FB04F0C5FC69E500F0A4FE4F4B1B6825
:1009F000586900F0CBFE04F005FE002003F02EF94C
:100A000003F092F800F0AAF8002001F057FE02F07F
:100A10009BFAE8300378002B03D0002004F066F83E
:100A200002E0786B01F0B6FC04F038FF04F050FFF0
:100A3000032812D006D801280CD0022815D100F0C6
:100A4000D5FF12E005280ED00AD306280DD102F0FA
:100A5000F9FB0AE000F0F4FE07E001F05BF804E0C7
:100A600004F0A2FA01E002F0DBFB04F091FE0228A0
:100A7000DCD000F071FE21E504F010FF012001F050
:100A800089FC04F085FE0328FBD017E504F080FE06
:100A90000428FBD012E504F001FF00F045FA04F051
:100AA00077FE0528FBD009E504F0F8FE03F026FAEE
:100AB00004F06EFE0628FBD000E504F069FE08286D
:100AC000FBD0FBE404F0EAFE04F0B8F804F060FEAA
:100AD0000928FBD0F2E404F0E1FE002002F0CEFF92
:100AE00003F0CAF804F054FE0A28F6D0E6E404F055
:100AF000D5FE002002F08DFA002002F0BFFF03F0C7
:100B0000BBF804F045FE0B28F6D0012002F081FA74
:100B1000D4E404F03DFE0C28FBD0CFE4A803002071
:100B20003C0000208C100020FFFFFF7F40000020D1
:100B3000FC6A082C00D019E702F06CFF012002F0DB
:100B4000A4FB391C00247431A2238C807C670B71B8
:100B5000201C221C04F01CFF0DE7C046F8B5184D00
:100B60007146281C764603F070FA164C276802F08E
:100B700079FE7865276802F079FEB865276802F08B
:100B800079FEF865276802F079FE3866276802F07A
:100B9000C7FE7866276802F099FF0B4A0B49126876
:100BA0000968B866D078097C236841431967C22177
:100BB000063249005A50281C311C03F05DFAF8BD7A
:100BC000FD0A00003C0000208C100020881000204E
:100BD000014B18607047C04688100020014B186810
:100BE0007047C04688100020014B18607047C0460F
:100BF0008C100020014B18687047C0468C100020F4
:100C0000014B18687047C0463C000020014B5868F3
:100C10007047C0463C000020F0B5754685B003958E
:100C2000294D01900F1C281C714603F00EFA274B2A
:100C300000211B680198DA69920008F08FF804F02F
:100C4000A7FF0290C478214D002C21D0042002F08F
:100C500015FF28684269561E009617D383690099CC
:100C6000019E5943C918890071180439013B0BD3FF
:100C7000866856439E190136B600F5590E68AC4693
:100C8000B44465460D60F0E7009AE4E7013CDAE71A
:100C90002F687D69013D11D3BC69019A261C6E4302
:100CA0003619B6009619043E013CF3D3029B306816
:100CB000D97807F043FF00043060F4E70248039955
:100CC00003F0DAF905B0F0BDB90B0000A80300206D
:100CD00038B50B4C7146201C754603F0B6F9094B2C
:100CE000201C1B689A68002A03DD19695218D20F6C
:100CF00000E000227933291C1A7003F0BDF938BDD9
:100D0000710C00003C000020F0B52C4F73468BB0F6
:100D10007146381C019303F098F9294DB6222B68CF
:100D20005200995C1A1C7932002904D1A82149008B
:100D3000595C002901D0002111701478002C20D0BA
:100D4000DA6F03A907921A69002408929B6807AA20
:100D5000099303234B708B707C235B42CB7001267D
:100D60001023201C8C800E700B7104F011FE2B6878
:100D7000DA6F022A02DC9219DA6718E0DC67341CA9
:100D800015E01A6905A907929B68092008930123B9
:100D90000B7002234B708B707C235B42CB7007AAD5
:100DA00064238C800B7104F0F3FD2B68DC67381C26
:100DB000019903F061F9201C0BB0F0BDA90C0000F3
:100DC0003C00002038B5054C75467146201C03F0E8
:100DD0003CF9291C201C03F04FF938BD650D0000BB
:100DE00038B5054C75467146201C03F02EF9291CB8
:100DF000201C03F041F938BD810D000038B5054CC9
:100E000075467146201C03F020F9291C201C03F0B4
:100E100033F938BD9D0D000082B0F0B589B0109C4B
:100E2000151C0F930693029407900E1C119C02F060
:100E30007FF847793A4B04978279964206D11B682E
:100E400000211A6EAB00D05A03910BE01A68354BA3
:100E5000D26D1968731C896803964B43EB180133F4
:100E60009B00D05A0499714349194A00A418238859
:100E7000069E0193019F7318874203D8C61B029FE9
:100E8000BE521CE0029EB61805960027F65F01369A
:100E900010D01F787EB2B446013601DA013703E084
:100EA0006646002E06DD013F1F7002235B42238051
:100EB00001202FE0069F79180F78002F01D12080A4
:100EC0000CE07FB27C1C05D1019E059F301A388052
:100ED000002002E0012F01D1FF2008701978039C47
:100EE000049E079F48B274437D19002805DC029ECA
:100EF000B25E013208D0002906D12A5700203E2ACE
:100F000008DC0131197005E02A57002A01DD01399A
:100F10001970002009B0F0BC08BC02B01847C046E8
:100F20003C000020A8030020F0B571468DB0744647
:100F30004248049403F089F801F0FAFF039004F0AA
:100F400039FE3F4C3F4B256880202F681E683E4984
:100F500001970006019A013A02921DD36B68013B8A
:100F600017D3019AAF68F46D5743DF197A1C9F00BD
:100F7000F7198037920005971759059ABC461768EC
:100F80006446E71BB84200DA381CB942E7DD391C79
:100F9000E5E7029F0197DDE70A906B4600206C466B
:100FA00098830123237602236376A3767C235B4216
:100FB000E3760B91542306A90AAA237704F0E8FCF0
:100FC0001F4F80253B68204F1B6902970193DCB2BD
:100FD0001C4B2D061E68013CE4B2FF2C15D0376E69
:100FE00003980597417A019807F04CFE059BA700EE
:100FF000FA58B76E8900CB59D31A9D4200DA1D1CEE
:10100000029F9F42E7DD0293E5E708A901230B70E9
:1010100002234B708B707C23029C5B420020CB70C0
:101020000AAA6B2388800A950B710B9404F0B0FC1C
:101030000248049903F020F80DB0F0BDC90E00007D
:10104000A80300203C000020FFFFFF7F37B5114CB4
:101050007146201C754602F0F8FF05F00DFC02F009
:101060009BFD021E07D16946A923888000900B7161
:1010700004F08EFCFEE7084B1B6803CB01F0D6FFA3
:1010800005F012FCFFF76AFD291C201C02F0F4FF9A
:1010900037BDC046ED0F0000A8030020F0B589B0B1
:1010A00000AF74463861F9606D487146BA607C6083
:1010B00002F0CBFF02F07EFF83000A33DB08DB0087
:1010C0006D46ED1AAD46041C281C7D6102F07AFFC6
:1010D00063000833DB08DB006846C01A854602F06F
:1010E0008DFF604B6E461A68131CFC33D96A632966
:1010F00006DD012000214042D962186499645962DA
:10110000131CFC33D96A9D6A0131D962632D07DD56
:10111000002101209962404259640121D86359623B
:10112000131CFC33996A986B0131996201280ADD1E
:101130000125A520002140006D4299631552A7208A
:10114000400011521963131CFC33996B01319963F0
:10115000596B01290BDD0125A420002140006D42BF
:1011600059631552A6204000115201211963131C26
:10117000FC33596B00250131596301233B763A4B0F
:10118000391C1B6818311B7980327B76BB760423AF
:10119000FB7602205B23BD833B7704F0F9FB2B1C1D
:1011A000291C013C08D37D69A200AA588918620055
:1011B000B25A9B189BB2F4E72A4D2868AC46021C31
:1011C0004B327861FF3200207C692518A22464002C
:1011D0002E1934688C4200D231603D35FF352C68C1
:1011E0008C4200D9296095889D4200D29380158851
:1011F0009D4200D913800438051C023A0835E3D11A
:10120000604602683D69131CFC335C6A1B6BA100DD
:101210005118FC31486CC96B5B00411A2980A4202D
:10122000A621D31840004900595A1B5AFC68CB1A12
:1012300023800D4BBD681B685B68990068185118C6
:101240000022043A013B04D38C1885588034256071
:10125000F7E70348796802F00FFFBD4609B0F0BD1B
:101260003D1000003C000020A8030020F0B5234EF4
:1012700085B075460291071C7146301C141C0395FD
:10128000019302F0E2FE1E4D00212B68201CDA685B
:10129000920007F063FD2B6801981A690021920003
:1012A00007F05CFD029D002D0CD0381C02F0E6FB1F
:1012B000144B201C1B680199DA6D1B6E05F0CAF8EF
:1012C000013DF0E7002F0ED10E4B1B68DF6D5E6E07
:1012D00002F0B6FA051C02F0BDFA311C031C2A1CF0
:1012E000381C04F06DFC201C0199029A04F080FD6A
:1012F0000248039902F0C0FE05B0F0BD0D120000D7
:10130000A80300203C000020F0B58FB002AF734668
:10131000B86079608C4871463B6002F096FE8B4B5A
:1013200068461A688A4D136892689E1C520056439C
:1013300001335208311C53430831C908C900401A0F
:101340008546013302AC5B00E3187B61814B796910
:101350001B682868D9609C60FA6000213C22083034
:1013600007F0FCFC321C0021201C07F0F7FC2B6866
:10137000B868191CDA6D08315B6E0090201C04F00F
:1013800037FE2B68061C78681A6E191C9B6E00903D
:101390000831786904F094FD0643F6B23E612E6888
:1013A000301C311C4431083005F012F86A4A2B68B1
:1013B0001268F0641020115E586B88420EDC122017
:1013C000115E986B884209DB1420115ED86B88424D
:1013D00004DC1621525E1B6C93421FDA00233B850E
:1013E00028220123D35504F005FA002816D104F071
:1013F0005FF8002812D0564B1B681B68FF2B00DDDE
:10140000FF232920C355381C0221283004F04EF94F
:10141000524802F067FE01F027FEE4E74B4E02253A
:10142000336800211A6858683A769A688023BA7639
:101430005B420132B9832B435200391C7876FB762C
:10144000A2185323012018313B7704F0A1FA306829
:1014500001232022D3550021037CB984222221219B
:10146000CB55D35580235B422B432320C3552421E6
:101470006D23CB55391C012020317A6904F088FA9C
:101480003368282218682921D0555A682A20CA555D
:1014900099685A1DC155D27F2B20C2551B692C213A
:1014A0002D22CB55D35D7F229343802040422B4396
:1014B00003432D21CB55FB68002201335B00E31869
:1014C000391C012028310093131C04F02DFAFFF77A
:1014D000FFFBFFF719FC002827D11D4D2B68D86DA5
:1014E00002F034FC2B68D86C02F00AFB02F0D2F850
:1014F0003A69002A0DD12B68211C1A1C08325B6F37
:10150000B86804F0D7FB2B6878685A6F796904F0E3
:101510002DFC022001F0FCFE786905F081FA2868B4
:101520000024503006F030FC00E02C1C094B002257
:101530001B6805489A60DA60396802F09DFD201C3E
:10154000BD460DB0F0BDC046A9120000A8030020A2
:101550003C000020400000208C10002010270000DC
:10156000F7B5254E7146301C754602F06EFD05F04C
:1015700095F9224CE430236801781A1C6D321278F8
:10158000002902D151B2481C04D100275F60BA4241
:101590000DD119E058681A6F904202DA586801308C
:1015A0005860012910D05B6893420DDB01270022AF
:1015B0003B1C69460E33101C8A8000920B7104F0AC
:1015C000E7F923686D331F7023681A1C6D32127897
:1015D000002A03D10A4A1268D27804E0012A03D112
:1015E000074A126812795A67586F01F059FE301C89
:1015F000291C02F041FDF7BD011500003C00002050
:101600008C100020F0B595B002AF74460E1C7862C5
:10161000714646483A627C6002F017FD04F0CAFA4F
:10162000F86005F03BF96C4692B03C6002AC92B0B9
:10163000FC6102AC8AB0BC6102AC90B07C6102ACCF
:101640008AB002ADB86088B000214022F8693C61E0
:1016500007F084FB00214022B86907F07FFB0021DE
:101660002022786907F07AFB00214022386907F0D0
:1016700075FB02AC281C0021202207F06FFB201C08
:101680000021202207F06AFBFA69BB6992B03A6335
:101690007A697B633D643B6902ADBA6300214022F5
:1016A000281CFB637C6407F059FB214C381C226822
:1016B0002C30516D936D443200922A1C06F086FB4B
:1016C0002368381C596D2C309B6D2A1C009605F040
:1016D0002BFF381C2C30796A321C3B6A06F076F9F5
:1016E0002368786A596D9A6D06F086FA3C68786AC4
:1016F000A546311C3A6A05F0C3F9BB680B4CE433CC
:101700001B78002B0AD1FA681379002B06D004F05D
:1017100055F8012802D0012001F0B7FD201C79689E
:1017200002F0AAFCBD4613B0F0BDC046A5150000EE
:101730003C00002038B5074C7146201C754602F06D
:1017400084FC07F043F901F0F9FB291C201C02F08E
:1017500093FC38BDD516000038B50B4C7146201CE3
:10176000754602F072FC07F0E3F907F035F901F075
:10177000E5FB002002F072FA01F064FD291C201C38
:1017800002F07AFC38BDC046F9160000F0B5194CDD
:10179000B1B073467146071C07AE201C1425019397
:1017A00002F053FC2A1C301C002107F0D7FA2A1C37
:1017B00002A812AD002107F0D1FA281C002128222E
:1017C00007F0CCFA26AB02AA391C0CA80D931CAB6F
:1017D0000E9310920F96119505F0A0F905F0D2F92D
:1017E0000CA805F097FA201C019902F045FC31B0D5
:1017F000F0BDC0462D170000F7B5754601950F4D99
:101800000E1C071C7146281C00921C1C02F01DFCBB
:10181000311C381CFFF778FD061E03D0201CFFF793
:10182000B5FF04E00098211C089AFFF7EBFE281C86
:10183000019902F021FC301CFEBDC0469917000042
:10184000F0B58DB000AF7646714664487E6002F018
:10185000FCFB634C684622680ACA5943CA18520006
:101860000832D208D200801A5B005E4A85465B08C7
:101870006E461268BB614B005D08F3181362D661B7
:101880007E6201F055FB2168B8604B68013B0AD3CA
:101890000A68013AFAD3B8697E6A504318184000C2
:1018A00000248453F5E77E6A6D0075190B69FD60AD
:1018B000013B04D3FE685A000021B152F8E7282604
:1018C0003E61002002F0DAF8454B1C68464B666822
:1018D0001A68FE61331C013B1ED3980025688446BC
:1018E000681E3862F7D3516E66468859A1684D4329
:1018F0005D190135D16DAD006E580025864200DDC1
:10190000351A3E6AB869796A704318184000465A19
:10191000AD1945523D6AE3E72669334B7E61B60057
:101920003E621D687E693A6A043A3A62013E14D307
:10193000286EBA683860517A786907F0A3F93B6875
:10194000386A89001A58A86E0B58D31AD943C91798
:101950000B40F96872008B52E5E73E69013E3E613B
:10196000002EAED1FE69013EFE610FD32568013D18
:10197000F8D3BE69F8696E43796A86197600705AA1
:10198000282107F0DBF87A6AB052F0E7FFF71AFA7D
:10199000134E28203368292619681A79C1552A2040
:1019A000F255C2555A1DD27F1B692B21CA55381CCE
:1019B0002C22D355796A02232D262830F35503F0C3
:1019C0008DFD084B00221B680448DA611A627968B1
:1019D00002F052FBBD460DB0F0BDC046E11700005D
:1019E000A8030020400000203C000020F0B58DB08E
:1019F00000AF744671464348FC6002F026FB01F0DC
:101A000097FA414C6D46236844CB724393195B00AF
:101A10000833DB08DB00ED1AAD46281C7D623B4D28
:101A200069462B685200D86150088A181A623862D9
:101A3000002002F023F876002168354A7608760007
:101A40000B6810687242BA615A1E56438446786A1F
:101A500086197E6100205C1EFC6118D37C694A688F
:101A600004193C61013A0ED355007D608D683C69D4
:101A70005D4355196E1CB5006646F66DAD592E1CBA
:101A80007D686653EEE7BA69FB698018E3E73D6A53
:101A90007E6A1F4A0B696C0036191068B4469A00BA
:101AA000043A013B05D3046E5900A55866467552A9
:101AB000F6E7FFF795F9144C292023682A211A79B3
:101AC0001E682825C255CA555A1D1B69EE552C257E
:101AD000D27F381CEB557E235B42796A2B242D265E
:101AE0002830E255F35503F0F9FC084C0022236836
:101AF0000448DA611A62F96802F0BEFABD460DB018
:101B0000F0BDC0468D190000A80300204000002051
:101B10003C000020F0B58FB000AF744671466248BB
:101B2000FC6002F092FA01F003FA604D2C686068E4
:101B30002168386241430B18DA1D5B00D208083374
:101B4000D2006846DB08801ADB008546F961C01ABE
:101B5000574BF9696A461B6856185A6285469E6259
:101B6000FA62B8610021101CE26807F0F7F82269F8
:101B7000301C002107F0F2F84E4B3C6A1B686200F3
:101B8000FC69520878331B787A61620052083A6126
:101B9000BB62BD6A002D5ED0002001F06FFF434B99
:101BA00044491A680E685368013B2AD31068411EE5
:101BB000FAD39568F46D6843181801308000005915
:101BC000BD69786078697C68484318184000405FB8
:101BD000001BFF2800DDFF203D6AFC6A4D437D624B
:101BE000C543E418ED170540BC60201C7C6A055510
:101BF00078697C684843BD69181840004453081C44
:101C0000D5E713693C695D007D62E018BD69294A2A
:101C1000400028181668B8600022023A013B16D32B
:101C2000786A356E8118B86849004C59815E091B85
:101C3000FF2900DDFF21F869FD6A2D187D60CD4385
:101C4000ED172940B8687D688452E954E5E7BC6A1D
:101C5000013CBC629DE7FFF7D1F8144C31212368A9
:101C600032241A7918683025CA55E2555A1D1B6965
:101C7000E8553420D27FC3557F235B423521381C81
:101C8000CB553325F96A3030EA5503F027FC084B71
:101C9000BC6A1B6804485C629C62F96802F0ECF95B
:101CA000BD460FB0F0BDC046B51A0000A803002025
:101CB000400000203C000020F0B5774691B0041CA5
:101CC0000E1CA5487146059702F0BFF903F072FF9C
:101CD000049004F0E3FD2378A04D002B08D1B2302E
:101CE00003785A1E9341DBB20393002B06D001E028
:101CF000012703972B680022FC3305E02B68FC3397
:101D0000DA6DFE2A01DC0132DA652B68AA21039F15
:101D1000490000225A5497425BD15420FF301C5C8A
:101D2000021C002C08D0185C40B2022800D0012010
:101D300058540021995475E1A8277F00DC5D1A1CD6
:101D4000FC32002C0AD001245C5403991954D95553
:101D5000039F5221FF315F54176664E1146E002C1B
:101D600009DD013C012C01D0146632E0039F1766A7
:101D700003225A5457E1C22149005958088878492A
:101D8000884226D07748B42100684900595AC08853
:101D900088421ED8744CD26D2768787C824218DB4A
:101DA0000EAA1180B52149005B5A039F06A95380F2
:101DB00001230B7002234B708B70CB70381C1523E2
:101DC0008F800B7103F0E4FD22682B68927CFC335A
:101DD0001A66654F3C68E07C002800D022E1039938
:101DE0005E4D002900D082E02D688023FF33EB5C3C
:101DF000002B54D0231C2A331B78002B4FD02B1CD4
:101E00000E91FC339F6FB4235B00EA5A7B009A5318
:101E1000231C2B33197803984B00F618031C9942A6
:101E200006D05A00B21A023A128801338018F6E737
:101E300006F0D2FE0E90A28B2B1CFC33904202DAED
:101E4000DA6F013200E00022DA67221C2C321278AD
:101E5000D86F904218DD7C2308A900255B4201243D
:101E6000CB70281C16230EAA8D800C700B714C7041
:101E70008C7003F08DFD394B281C1B68FC339D676B
:101E8000DD6703F0C7FDCEE0221C2B321278013A49
:101E9000974202DA01379F6701E000229A67FC351A
:101EA0006A6EA37F2D4D9A4219DB00240AA91223E2
:101EB000201C221C8C800A940B7103F069FD2A6897
:101EC0002948131CFC33996E006801319966C07F64
:101ED000814204DB9C66AA2302215B00D1542A685C
:101EE000A921002349005354FC32536644E02B6877
:101EF0001A1CFC321066BF2252009A5C002A3BD0AA
:101F0000B4267600995B0EAAB524118064001B5B91
:101F10000CA9538001230B7002234B708B70CB7084
:101F2000192388800B7103F033FD2B683A689D5BA1
:101F3000908BA9214900854218D21C5B108D8442E8
:101F400014D2595C002917D1FC33596E927F91420B
:101F500012DA013159660FE0591C00003C000020E4
:101F6000FFFF00008C1000208810002001225A542E
:101F7000FC3300225A669A662E4DBF222B6852000F
:101F80009A5C002A4ED1049F3A79002A47D0A822B1
:101F900052009C5C002C45D1274E98683768398BDD
:101FA0007A8BBB8AFF8A009703F0ACFD36682B68FA
:101FB000318C728C071C9868B38CF68C009603F0F9
:101FC000A1FD2B68B42252009E5A5225B521FF353F
:101FD0004900BE4202DA5A5A824213DB08AA16802E
:101FE0005B5A0EA953800223002001264B708B7090
:101FF000CB70172388800E700B7103F0C9FC0D4B5A
:102000001B685E550B4B1B685A5D002A0AD0039F64
:10201000002F07D00121A8228A40995403E05221C1
:10202000FF315A5401240548059902F025F8201C77
:1020300011B0F0BD3C00002088100020591C0000A9
:10204000F0B5764685B003963F4E7146051C301CB0
:1020500001F0FBFF3D4C52222368FF32995CB6220F
:102060005200002906D0BF214900595C002901D146
:10207000012199549A5C002A5ED0A822344800219C
:102080005200995402680291126A0F1C013A0CD353
:10209000EE685000805B0028F8D07E1C00B2F7B2DA
:1020A0008142F3DA011C0292F0E7BF2252009A5CEF
:1020B0000192002A24D1C02676009B5D002B08D017
:1020C000244B1B6803CB04F017F9204B01981B68C5
:1020D0009855B62322685B00D35C002B10D0012FEB
:1020E0000ED901231A4E2B7033681B6A013B09D3AA
:1020F000029EB342FAD0E8685A0000211152F5E777
:10210000002F03D023680022FC3305E02368FC3352
:102110005A6F032A01DC01325A6723681A1CFC3209
:10212000526F032A0ADDB622002152009954012180
:10213000A8228A40995401E0FC335A670248039967
:1021400001F09AFF05B0F0BDE11F00003C00002047
:10215000A803002040000020F0B5A3B002AF7546F0
:10216000B861F96185487146BD607A610025FB6000
:1021700001F06BFFA6232420391C20312A1CBD84CA
:10218000C355281C3D6203F003FCFFF7E9F9281C46
:1021900001F04CFC7A4EB4213368B522490052005C
:1021A000581899185A6EFEF779FF3368B422520016
:1021B0009A5A3C1C68342280B52252009B5A28202F
:1021C0000222638029210123C355CA552A202B21CD
:1021D000C255CA552C22391CBD850C20D355283137
:1021E000221C03F0D5FB674B30201B683122196895
:1021F000C15558683221D0559A683320CA55591DA7
:10220000C97F1B69C1553421CB5535200423C355E3
:1022100033680132DB6D92009A18391C009202205B
:1022200030312A1C2B1C03F07FFBB869F969FFF7DA
:102230006BF8B861A84203D07869FFF7A7FA7EE08F
:102240006D468CB03D6102AD8CB07D6002AD8AB050
:102250003D603E1C02AD5436FD613D1C4035301CD6
:10226000B969142206F07AFD281CB969142206F017
:1022700075FDB9692822F86906F070FD424B2561A9
:102280001B6878683968FD696060A160E660656117
:10229000201C1C617969FA68FFF7B4F99822D159BA
:1022A000201CFFF709FD201CFFF7CAFE201C04F0CC
:1022B00031FD25786C46AB000733DB08DB00E41A00
:1022C000A54602AC7C612E1C1224786F035F002BA4
:1022D00009DD7A69013EFB6FB000610010185918E2
:1022E000042206F0F9FC023CA31CEED1254B392157
:1022F0001B6838245A681868CA559A68E0553A2409
:10230000E2550533DB7F3B20C3557E235B423D20F6
:10231000C3551B4B01321B6852009B6D00249A1859
:102320003C21CC550092391C7B69032038312A1C92
:1023300003F0FAFA144B1B681C613C69A54601F0D6
:1023400069FB01F049FA0E4B1A68AA235B00D056CC
:1023500000F0BEFB041E00D1BC690C4B1B681A6860
:102360000B4B9A4202D001F0C9FDFEE70348B96861
:1023700001F082FE201CBD4621B0F0BDF920000016
:102380003C000020A803002040000020B0100020E6
:10239000CDCDCDCDF0B59BB002AF74467146F8609F
:1023A000C148BC6001F051FE00F0C2FD061C00F007
:1023B000D7FDB86100F0C8FDBC4B6D461C68786164
:1023C000E36800211A1C0E32D208D200AD1A22692D
:1023D000AD460E32D208D2006846801A02AD85465C
:1023E0007D6202ADBD6272799A18131C0E33DB0850
:1023F000DB00C01A53000E33DB08DB008546C01A31
:1024000002AD8546C01A3D6202AD854602A8F8615C
:10241000386A06F0A3FCE1687279281C5218012181
:102420005200494206F09AFCE3687279F869D218C2
:1024300052009F4906F092FC7B69BD65E7331D7829
:10244000E268786A002D0BD0B96906F045FCF025EA
:102450002269BC69AD00B86A611906F03DFC07E06D
:10246000291C06F07BFC2269B86A291C06F076FC60
:10247000402400253C61FD62B96A786A02F068FB7D
:10248000032001F0FBFA894D00202B6838871A6879
:10249000586834213524CA55E0559A6804243723F6
:1024A000DC55844C51233820C35523683621CA5546
:1024B000DB6D01329200391C9A180220343103F08E
:1024C00067FA01233C20C3552B6800221B7C402166
:1024D000CA533D213E22CB55D35504253F23DD551C
:1024E00040205A23C3552368391C1A6E02203C3100
:1024F00003F04EFAB479013C631C33D07579013D89
:102500006A1CF8D07379F9696343EB185B005A5A77
:10251000694B9A42F3D03A6A58237A607A65F96532
:10252000DB19694605CB05C1211C7B68786A2A1C2A
:10253000FEF772FC002803D0FB6A01339BB2FB62FA
:102540007B69386AE7331A7873796343EB18002A9A
:1025500004D0C15CB869C25C8A1800E0C25C796AC8
:10256000CA54CCE7F479013C601C37D0B179737957
:10257000FD694B43E3185B005A5B4F4B9A42F2D024
:102580003D6A58207D607D65C019FD698446FD6502
:102590006846624628CA28C0221C7B68B86AFEF7D3
:1025A0003BFC002803D0FB6A01339BB2FB627B69D2
:1025B0007279E7331878B1793D6A4A432B190028BC
:1025C00008D0BD69F0212819890040189A5C037869
:1025D000D31800E09B5CBD6A2B55C4E7334BFC6A03
:1025E0001B68DA681B69D3189C4206DA3B69013B19
:1025F000DBB23B61002B00D03EE7FD68022D3FD0EF
:10260000786AB96A02F0A4FA002448207C64C453B2
:10261000B3794421CB557379472045224625D355BC
:10262000EB55C35D7F2101258B4380222B43524212
:102630001343C35548211D23CB55391C7A6A082002
:10264000443103F0A5F9391C4C31FC648C800D70C9
:10265000F3797F224B708B70CB78082093431D4316
:1026600080235B421D43BA6A1E230B71CD7003F0B9
:102670008FF90D48B96801F0FFFCBD4619B0F0BDF7
:10268000B379013BBCD37279013AFAD371797D6990
:1026900059437C6A8918E8186118F8300C7800787A
:1026A00020180870F0E7C04635230000A80300207A
:1026B000FFFF00003C000020FEFF0000F0B5A5B0C9
:1026C00000AF74467146F861E248FC6001F0BDFC61
:1026D000E14C2368DB687B635B0001333B6500F002
:1026E000EDFF2368FF22DB68F865D31A984200DD0E
:1026F000FB656C46F86D00F0E9FF7C653C6D684653
:1027000065002B1C0833DB08DB00C01A85466C46CD
:10271000BC6464200024C453012360216122622030
:10272000CB55D355C3557C235B426321CB556422E3
:10273000B123D355391C3A1C201C60315C3203F0A4
:1027400027F9F86D796B431A9BB2396D8C4205DA23
:10275000B86C6200191981520134F6E700246C222A
:10276000C8B2D4530126682369216A22C855D055BE
:10277000DE55F86402236B20391CC3556831201CD8
:10278000BA6C03F005F92B1C796D08338D46DB0814
:10279000DB006A46D21A95466846386301F00AFCA7
:1027A000B861301C00F002FE211C2822AB4806F064
:1027B000D5FA211C2A1C386B06F0D0FA396D6A460E
:1027C00089000B1C0A33DB08DB00D21AB869954676
:1027D0003962D21A69468000F9629546BA62386158
:1027E000BC6400213A6AF86A06F0B8FAB86AFF21B8
:1027F0003A6A06F0B3FA0024974B7C651B687C6D3F
:102800009B689C424EDA7C6BF96DE4B2081BC0B247
:10281000FC6300F068FF00F031FF00F0BDFDBD6A11
:10282000FC6A0026386D0136F217C30F8642534109
:10283000DBB2BB63002B08D1F96BFA6D701A8018FC
:10284000C0B200F050FF00F019FF3B6968460A3340
:10285000DB08DB00C11A8D466B467861181C7B646F
:1028600001F0B0FB00231A1CB9698A4205DA786CC2
:102870009100415801325B18F6E72268934200D973
:1028800023602868834200D22B607969BA6B8D4639
:1028900004350434002A02D100F07EFDC2E77C6DCD
:1028A0000134A9E700246E4D7C653A6D944219DA33
:1028B000F96ABA6AA300C858D358C01A854206DD1F
:1028C000F96D7A6B63189B1A7B62051C3C647B6D07
:1028D000834200DA786500F053FD396B6300C8521B
:1028E0000134E2E7786D00F04BFD5B4B1B68DB8841
:1028F000984206DAFC69012C03D0FC6D7C627C6B8B
:102900003C64584D32232C683A6CFC34A362642337
:10291000E3620220BB6A8240D35800260121606333
:10292000A163181C66622663BB60FA6300F028FD91
:10293000F96BFA6AE06388582C6800F021FD2B6877
:102940000121A522FC345200494260649952FC697D
:10295000A72252009E52331C012C29D13C6D3F4AC4
:10296000A34209DA58003C6B1218215A1088884299
:1029700000D211800133F1E73C6C6300D25ABC6C89
:10298000131CA24200D2231C9BB274217022FC6C47
:10299000BB6400200123D355C853712372217322D5
:1029A000DC55CC550223391CD35570312B4A10E02D
:1029B000786D00F0E5FCFC6C80B2391C7831B864AD
:1029C000012302203A6BC8708E800B704C708C70A3
:1029D000301C02F0DDFF3C6C8821CC537C6A8A20DD
:1029E000C4533C6C8E2166003C6B8C20A619BC6CD9
:1029F0003388CC53391C8031C35304234B708B7004
:102A00000025012002233A1C0870CB70281CB22339
:102A100088328D800B7102F0BBFF124CC2212368FB
:102A2000490059587960786831880288914226D9DE
:102A300006F07EF8051C05F0DBFF0378061C002B72
:102A400012D0012002F0E6FF2368C22102364900BD
:102A50005E5023E05D2600008C100020E80300207B
:102A6000FFFFFF7F3C000020002D17D1154B1B6896
:102A7000DB7C002B12D1012002F0C0FF0EE080228F
:102A8000FF329B5C002B09D0281C02F0C3FF0E4ACA
:102A900023681268C224063264001A51FC69002CB3
:102AA0000AD17C6AE0B200F01EFE0848F96801F025
:102AB000E3FABD4625B0F0BD02F06AFE082800D159
:102AC0008FE6EEE7881000208C1000205D260000C5
:102AD000F0B57F4C724691B07146071C201C0392E2
:102AE00001F0B3FA06F024F8051C02F09FFE794BC2
:102AF000BE22196852008A5C061C1C1C824221D02E
:102B000000280CD000226B469A8269463B230B7545
:102B1000101C04A90492032502F03AFF0EE006A956
:102B20003C23321C888006900B7102F031FFBF23DA
:102B300022685B00D55C6B1E9D41EDB2BE2321680F
:102B40005B00CE5402F080FE2168BE235B00CA5CAD
:102B5000061C002A23D17E23FF33C95C81421ED08C
:102B6000002809D008A93923101C8A8008920B710B
:102B7000022502F00DFF0EE00AA93A23321C8880DC
:102B80000A900B7102F004FFBF2322685B00D55C42
:102B90006B1E9D41EDB223687E21FF315E5402F031
:102BA000FFFD019002F034FE032F03D0019A002AAA
:102BB00004D108E0019B0126002B4BD0002002F03D
:102BC000F7FD012646E0BE2321685B00CB5A019E3B
:102BD0000293002B3ED1012F02D0022F04D00FE030
:102BE000381C02F00BFF0BE0029802F007FF802375
:102BF0002268FF33D35C002B02D0029802F00AFF58
:102C000002F0F6FEBF2321685B00CB5C071C0022AC
:102C100083421ED0904209D00CA91123101C8A8037
:102C20000C920B71012502F0B3FE08E00EA91323EC
:102C30003A1C88800E900B7102F0AAFE3D1C012107
:102C40002368C0228A409954BF228A409F5400269C
:102C500000E0161C05F06CFFA84216D0281C05F0F9
:102C600061FF05F035FF002000F0F8FF002002F0C2
:102C7000D1FE236880220021FF329954164A012692
:102C80001168C22206315200995005F051FF05F03B
:102C9000AFFE0378002B09D002F0B6FE2268802335
:102CA000FF33D15C814201D0D054012602F0E8FD0F
:102CB000041C03F0F3FD0379A34200D0047102F079
:102CC000D1FD0348039901F0D7F9301C11B0F0BDD4
:102CD000712A00003C0000208C100020F0B599B053
:102CE00000AF7546714680483D6001F0AEF97F4CFB
:102CF000092123687E4E1A1C6D3212784A43191C32
:102D00006B3109789B7952189B09D318FB6200F04C
:102D10000FF9236800201A1C6F329B7912789B09E7
:102D2000D318BB6201F0E2FEB5446D46A2B0FD616E
:102D30006D46A2B0BD610A266D467D617E637D6BE6
:102D4000F86A05217A6BADB23D610F2602F0C2F838
:102D5000B86A05217A6B02F0BDF83E633D6BF86AF4
:102D600005213A6BADB27D60002602F0C1F8B86A69
:102D700005213A6B02F0BCF8FE63FD6B05200026CE
:102D8000684302F0D5F8BE637E623E62574E02236E
:102D9000306805210370F86A00F076FE554A0A2172
:102DA0001268554D92682B685143DA6D06318B00DD
:102DB000D45AF969BA6B7B6A8C5224B21B197B62B4
:102DC000336801221A70B86A052100F05DFE2B6895
:102DD000BE6B5B6E3D6A5B690236E41A2D19802377
:102DE0003D62BE639B009E42D0D12B12FE6B7D697B
:102DF0000021AB537D6A002200232C12FE69705A19
:102E00000231001B404300B2B860C017F860802058
:102E1000BD68FE688000521973418142EED1FE6B9D
:102E20001B06120ABD6971001A4302366A50FE631E
:102E3000082EA2D13D694026F5537D684226002424
:102E4000F5534C26F4534A230226DE55012148202F
:102E500049228023C155D6555B42391C3A1C334365
:102E60004B25201C48314032EB5502F091FD0122E8
:102E70005021CA558021542049420425C4530E4391
:102E800052205322391C5123C555D655201C503190
:102E90007A69DD5502F07CFD5C23DC5359218023E7
:102EA000CD55012058265A225B42391CF055D55584
:102EB0005B261D43201C5831BA69F55502F068FDA8
:102EC0003D6B03353D63422D00D047E77E6B0136F5
:102ED0007E63102E00D032E70348396801F0CCF849
:102EE000BD4619B0F0BDC0467D2C0000D8010020C1
:102EF000F8FBFFFFA80300203C000020014B1868EE
:102F00007047C046CC010020014B58687047C0464E
:102F1000CC010020014B98687047C046CC010020CE
:102F200070470000014B18607047C04698100020A1
:102F3000014B18687047C04698100020014B18607C
:102F40007047C04694100020014B18687047C04677
:102F500094100020014B18607047C046901000206C
:102F6000014B18687047C04690100020014B18684C
:102F70007047C046D801002010B50D4B00201B78CB
:102F8000AA2B12D10B4B1C780B4B64B218780B4B4D
:102F900040B219780A4B20181A780A4B49B21B78AC
:102FA00040188018C01A43425841C0B210BDC046F4
:102FB00050000200510002005200020053000200C3
:102FC00054000200550002008023DB02002218801A
:102FD00059809A80C046024B188880B27047C0461C
:102FE0000600040082B00022019201AB55221A7043
:102FF000392252429A700122DA70019AA023DB052D
:103000009A6102B07047A023DB059869C001C00F28
:1030100070470122A023DB0510400206024998698F
:103020000840104398617047FFFFFFFE82B0002206
:10303000019201220A40891801303F2201AB104061
:10304000C9B21870481C023102408900D9705A7008
:10305000019AA023DB05DA61196A024A0A401A6262
:1030600002B07047FFCFFFFF0002064B000A013895
:10307000002258609A6005221A60C0461A68D1037F
:10308000FCD5704710E000E0F0B55C4B85B01F68E0
:1030900003AD3E1CE0360424311C221C281C05F024
:1030A0001BFEB37832781907E3400193F378287850
:1030B0001B071B0F009312070F239843120F104397
:1030C00028706878012630430226B043A043C72405
:1030D00020406870A878019E9843090F0843340186
:1030E00018402043A870E878009E9843031C33439F
:1030F00010208343EB700398A023DB05FA25D860EA
:103100006D00A023DB05DC683D48013D2040D86010
:10311000DC688020C0002043D860002DF1D1E13769
:103120003C78DE68E4063748A40FE40230402043D0
:10313000D860DC68802080002043D860DC68802074
:1031400080012043D8600C1C161CFFF715FF0028D7
:1031500012D02D4F882039781E34C9B205F03CFDBD
:1031600039784443C9B2882005F036FD0F3646430E
:103170001E3C0F3E002C03DB251E0F2D00DD0F250E
:103180000F239E4200DD1E1CA024E4051D402B04DD
:103190001E4AE5681E4815401D43E560F343E2689A
:1031A000DB171E400F239A431E401643E660E36878
:1031B000F022934380221343E360E368154D164EDB
:1031C0002B40E360E3683340E360FFF74DFFE268C4
:1031D00080235B051343E360009A10481306E268FE
:1031E00016401E43E660FFF73FFF019EE26833058D
:1031F00015401D43E56005B0F0BDC04694100020A9
:10320000FFFBFFFFFFE7FFFF54000200FFFFF0FF9F
:10321000FF0F0000FFFF0FFFFFFFFFF0FF6F000039
:10322000064A074B12680120D8321268197890407C
:10323000021C0A43D2B21A707047C046D80100205F
:10324000290000500549064B09681A78D8310968E9
:103250000120884082431A707047C046D801002080
:1032600029000050044B1878044B1B68D8331B68A6
:10327000184101231840704729000050D801002050
:10328000A0230122DB055A707047044B82B00190E5
:1032900001AA188092789A7002B0704724000050FA
:1032A00007B500F001FF064B019001AA1880927843
:1032B0009A70044B00221A70034B0122DA7707BD83
:1032C00024000050000000200800005007B500F066
:1032D00009FF064B019001AA188092789A70044B5E
:1032E00000221A70034B0122DA7707BD2400005038
:1032F0000000002008000050034B00221A70034B0E
:103300000122DA777047C046000000200800005014
:1033100072B6084B1B5C002B03D1C04662B630BFAF
:10332000F6E762B6A023DB059968034A0A409A6073
:103330007047C04600000020FFFFF9FFA023DB0517
:103340005A680121120E58689143034A0906024047
:103350000A435A607047C046FFFFFFFE08B5074B9F
:103360001B681A1CF0321278F1331B7852000132BC
:103370005043994005F030FC08BDC0469410002031
:1033800008B5044B1B68F333197849000131FFF786
:10339000E5FF08BD9410002008B5A0230120DB053F
:1033A0005870FFF7B5FFFFF7C9FF08BDF0B5644DD2
:1033B00085B02F68041C391C04280BD1221CCC3189
:1033C00003A805F089FC391CD031221C5D4805F0AA
:1033D00083FC27E0D431042203A805F07DFC391CCE
:1033E000A023D83104225748DE0505F075FCFDF70F
:1033F00007FC8023FF33C35C002B13D005F098FB40
:1034000005F0F6FA077971697F224F4B1740194092
:10341000BF043943716141790A40716992040B40DC
:1034200013437361A023DB0558696A460006117BCC
:10343000800F1F2202304001114001436846017392
:10344000039919611E691640FFF796FD00280AD0FE
:103450003E4B882019780436C9B205F0BDFB4643BF
:103460000023043E03D4331E1F2B00DD1F23A022A4
:10347000D205108A1F210B40884303431382022C7C
:1034800014D006DC002C11D0012C2DD12B68F23386
:1034900025E0042C07D024DB052C25D12B68002443
:1034A000EC33019320E02B68E93318E0FDF7A8FB2B
:1034B000B6235B00C35C002B03D0254B1B685D3338
:1034C0000DE08023FF33C35C002B06D005F030FBFA
:1034D00005F08EFA0630019006E02B68EF33019379
:1034E00002E02B68F533FAE7019AA023DB0559695E
:1034F00010783F22104091430143596101995D6961
:1035000048781F2108401349C002294001435961EE
:103510001149640009680C19211C77310878596831
:1035200010409143014359607834217858680A402B
:1035300011020A4A02400A435A6005B0F0BDC04673
:103540009410002014000050FFFF03FE54000200FE
:1035500098100020FF07FFFFD8010020FFC0FFFFE9
:10356000294BF0B51A68294B85B01B68F2331B78DC
:103570005B069B0E0193931DD97F00238D00551987
:10358000581E5B18002B27D053181B1826331B78A6
:103590008024D3185E78A023DB055F68E4033C43F6
:1035A0005C60019CB606240400945F68B60EBC46BD
:1035B000174F64462740009C27435F60C04624366F
:1035C00076008400F65A2C19883426605E68114C07
:1035D00034405C60031CD3E76F460293BB81012338
:1035E0003B72931DDB7F7F217B72BB72FB7A88323B
:1035F0008B4304210B43FB720F20B02302A93B73C2
:1036000002F0C6F905B0F0BDD801002094100020EA
:10361000FFFFC0FFFFFFBFFFF0B585B0FFF7A0FFC2
:10362000154B00251E68B31DDC7F631C9B005B42AD
:103630000093A300F3180193009B043D9D4208D022
:10364000019A0121571988373868FFF787FE3860DB
:10365000F2E76A4600239381012313720423D37295
:10366000B023547294721373321C88320F2002A953
:1036700002F08EF905B0F0BDD8010020044B002205
:103680005A70A023DB055A7001221A707047C04699
:1036900000000020A023DB059968064A0A4080212B
:1036A00089020A439A60044A0021917001229A70AB
:1036B0007047C046FFFFF9FF00000020024B1B6867
:1036C0000833D86F7047C046D8010020024B1B68F2
:1036D0000833D8677047C046D8010020A023DB0517
:1036E0009868C0B2704730B5A023DB059B68DBB299
:1036F00083420ED001DA013300E0013BA022D20563
:103700009568FF211C1C8D430C40291C21439160AE
:10371000EEE730BDA023DB059968802252020A4300
:103720009A609968094A0A409A609A6812011209D7
:103730009A60D968064A0A40DA60D968054A0A40A0
:10374000DA60D968044A0A40DA607047FFFFFFF088
:10375000FFFEFFFFFFDFFFFFFFFFFFEF1B4B10B57B
:103760001A680121131CDE331878A023DB059C683E
:10377000084017490004214001439960DF32107866
:103780009C681449000700092140014399601178A1
:103790009A6809091201090712090A439A60D9684F
:1037A000802252000A43DA60D968802292010A43DB
:1037B000DA60D968802252050A43DA60C923013BE6
:1037C000002B01D0C046FAE710BDC046941000207F
:1037D000FFFFFEFFFFFFFFF010B5A024E405A36884
:1037E00000201B011B09A360E268124B1340E36039
:1037F000E268114B1340E360FFF78AFD0F4B1B6833
:10380000DF331A78A36812091B0112071B0913433F
:10381000A360E26880235B001343E360E2688023D7
:103820009B011343E360C923013B002B01D0C04639
:10383000FAE710BDFFFEFFFFFFDFFFFF941000203F
:10384000034B1B68F0331878400001307047C046C6
:1038500094100020024B1B68F13318787047C04663
:103860009410002000487047001000500048704736
:10387000002000500048704700400050074B0120D6
:103880001B685B799A1C0340D318054A126866329C
:1038900010785843034B8000C018704798100020E0
:1038A000D801002004400050F7B51B4B051C1C68D4
:1038B000A3795F1E15D36279013A10D36079561C43
:1038C000811C0191012108400199081858433118C1
:1038D0001248890009180868E8400860ECE73B1CBA
:1038E000E7E7FFF7CBFFA37A002201339C4663464C
:1038F000013B9C460FD3617A960001918619002303
:103900000199994205D09F00F1590133E940F151E5
:10391000F6E75218EBE7F7BD981000200040005082
:10392000074B01201B685B799A1C0340D318054A9A
:103930001268723210785843034B8000C0187047E9
:1039400098100020D801002004400050F7B52D4BFE
:103950001D682A7853B2042B1ED12B4B1B68EB3306
:103960001F782A4B196802235E1E4AD34A79013A0E
:1039700010D34C79551CA01C0190012004400198E3
:1039800004195C432819224C800000190468FC408B
:103990000460ECE7331CE7E7002A32D0022B0ED19B
:1039A000FDF72EF9B6235B00C35C002B03D0174B49
:1039B0001B685F3322E0144B1B68F1331EE0032BBE
:1039C00003D1114B1B68F73318E0012B11D1FFF71E
:1039D000A7FF0E4B061C1B685C79013C11D32B1909
:1039E0003A331B789B009859FFF7CAFCA300F050AC
:1039F000F3E7052B05D1044B1B68EE331878FFF76E
:103A000053FFF7BDD801002094100020981000202B
:103A10000040005008B5A0230120DB055870FFF7D7
:103A200077FCFFF78BFCFFF791FF08BD70B5041C16
:103A3000104E114D11D10120FFF7B8FC336801225F
:103A40001A70A023DB056C705C701A70FFF7E2FF40
:103A5000FFF774FCFFF7E0FD0224201CFFF7A6FC33
:103A6000336800221C70A023DB056A705A700122A3
:103A70001A7070BDD80100200000002008B5FFF7C3
:103A8000D5FFFFF7C7FF08BD08B5A023DB05011C64
:103A900058683F221140904308435860596858685D
:103AA000114001310A401102064A02400A43064908
:103AB0005A6000224A705A7001221A70FFF7AAFF5A
:103AC00008BDC046FFC0FFFF00000020094B0121D8
:103AD0001A685379D0799A1C0B40D318064A0130E2
:103AE00012686A3212785343C018044B8000C01821
:103AF0007047C04698100020D801002000400050B8
:103B000010B5A023DB051C6A0005064A000D010460
:103B100022400A431A621A6A120B120310431862F7
:103B200010BDC046FFFF00F0164B13B51C68A02364
:103B3000DC34211CDB05144804229B6805F0CCF81A
:103B40002478FFF719FA00280CD0104B104A1B7884
:103B50001278201C52B200925BB21021D12201F0E7
:103B6000D1FF2418002C01DA002402E0FF2C00DD34
:103B7000FF24084BE0B21B680833DC67FFF7B3FD96
:103B800013BDC046941000200800005053000200EE
:103B900052000200D801002008B5FFF7C5FFFFF76B
:103BA00073FAFFF71FFA234BC0229200985822495C
:103BB000014099509958FF2081434020014399507A
:103BC00098581E490140802000040143995098589C
:103BD00080210002000A09060143995001210222B6
:103BE0001A6008201960042119601860144B002025
:103BF0005860144B186901431961134B1B68197AFB
:103C0000124B1B68D833002900D1032210491A60D7
:103C100000230B700F49A0220B700F49D2050B70C7
:103C20009363D36B9B0E9B06D36362B600F082FA5C
:103C300008BDC04600E100E0FF00FFFFFFFF00FFFE
:103C4000FCE100E000ED00E098100020D801002029
:103C500029000050280000502A00005008B5002814
:103C600001D0012801D100F065FAFFF75DFFFFF7F1
:103C70000BFAFFF7B7F908BDF0B5214B13211B680C
:103C80000224DA7A0023133AD2B291425B41E41A59
:103C9000A023DB0558693F22596810408022D203D7
:103CA0000A43A3B05A60411EA023C9B2DB0502AA91
:103CB000FF2910D05F683F26124D0E4036043D406C
:103CC00035435D60C046251C24356D005D5B4B00AF
:103CD000D5520139E8E75C680B49214059606946D3
:103CE00000238B8001230B70022348708870CB70F7
:103CF0000320B3230B7101F04BFE23B0F0BDC0468F
:103D000098100020FFFFC0FFFFFFBFFF10B5A020ED
:103D1000C00544694906E401E409214341617F216A
:103D20000A4044699104074A22400A430649426115
:103D300000224A70427001220270002B01D0FFF76E
:103D400069FE10BDFFFF03FE00000020F7B5041C54
:103D500002F092FD124B1A6800235068411C019139
:103D6000019D16689D420CDB976801367E439900E1
:103D70008C469E1900216546B600615101333151D0
:103D8000EEE701239E420ADB956800215D43AF0008
:103D90002D180135AD00395101332951F2E7F7BD36
:103DA000A8030020044B054900221A6059609A605C
:103DB00005221A607047C04610E000E0FFFFFF00D8
:103DC00010B5A023DB059C689968E623C943C9B2F6
:103DD0005943E403E40F064B0134A040C918041C06
:103DE000044804F0F9FE011C201C04F0F5FE10BD8F
:103DF0005C5D000040420F00014B00221A607047DA
:103E000010E000E030B50D4D0D48AB6885B0C01A2C
:103E10000193FFF7D5FF02A9012300240B704B701B
:103E20008B7004230190CB70201C6F2301AA8C801F
:103E30000B7101F0ADFD2C6005B030BD10E000E06D
:103E4000FFFFFF00A023DB05D87CC0B270478023B2
:103E5000DB0500BA09BAD8601961704737B5051C8F
:103E60000424291C221C684604F036FF2919221C50
:103E700001A804F031FF009980230ABADB05DA605B
:103E800001990ABA1A6137BD40BA80B2704700BAC8
:103E900070470023114A12499A188A4204D21149E4
:103EA000C95804331160F5E70F4B104A191D043B44
:103EB000934203D200221A600B1CF6E70C4B0D4A0A
:103EC0001360EFF308820433191D043B9A4203D9AF
:103ED000094818600B1CF7E77047C0463C000020FB
:103EE000BC030020D48E0000C003002088100020F6
:103EF000D0100020B0100020CDCDCDCDF0B5294D93
:103F000089B029482C6800F0EDF8FFF7ADF80026DD
:103F1000264FBC4222D280373B1B2027832B00DC5C
:103F20009F1002A9FAB2012300204A708A70BF10C4
:103F3000221C0B70CB70888001F02AFD231C3A1CD8
:103F4000013A08D3002E04D119491868884200D0DC
:103F50001E1C0433F4E7BF00E419D9E72B6804A959
:103F6000F31A0025019304230124CB70281CA723F6
:103F700001AA8D800C704C708C700B71843701F02D
:103F800007FD06A90420C870A823BE1B281C01AA8F
:103F90008D8001960C704C708C700B7101F0F8FCE8
:103FA00009B0F0BDB0100020801A06008037002054
:103FB000CDCDCDCD024B1B680633D87F7047C046B0
:103FC000D801002070B5051CFFF7AAFC0A4B1C683D
:103FD000A31DDB7F9A00AD180022511ED218002AC3
:103FE00009D0E218521826321278920016588A0028
:103FF000AE500A1CF1E770BDD801002030B50B4B64
:104000001B689A1DD27F94001C195300C01800230E
:104010000133D11A013107D09D00651B8835590045
:104020002D6849424552F3E730BDC046D801002013
:10403000A02382B080B2DB05D88502B07047A023F0
:10404000DB05D88D82B002B0704770B5051CFEF755
:1040500061FF0468061C013C08D37268E300D318B2
:104060001A68AA42F7D15B689847F4E7014B013D13
:104070001D6070BD9C10002070B5051CFEF74AFF46
:104080008468061C013C08D3F268E300D3181A6860
:10409000AA42F7D15B689847F4E7024B013D1D60E7
:1040A00070BDC0469C10002038B5A023DB05996880
:1040B0009D68C943E623C9B25943084B041CC9187B
:1040C000074804F089FD064BED035843ED0F013519
:1040D0002841211C04F080FD38BDC0465C5D000015
:1040E00040420F0038B5A023DB0599689C68C9439E
:1040F000E623C9B25943064B051CC918054804F00C
:104100006BFD6843E403E40F0134204138BDC04631
:104110005C5D000040420F00002801D0133907E029
:10412000122902DD262902DD1239491000E000E0E3
:10413000081C7047F0B5E24BB1B01B680293DC7904
:10414000002C00D187E153331B780021133BDBB2F5
:104150001322081C9A424841C4B20594022609ACB5
:10416000361A1422201C04F0F9FD029D6F7A029881
:104170002B1ABB4210DA2B1C533319780598FFF722
:10418000CBFF132800D9CEE3235C0135B34200DB1B
:10419000C9E301332354EAE7CA4B00251B68291CF5
:1041A000049363331D70049B882266331D700EA830
:1041B00004F0D4FD291C1422201C04F0CFFDC24BB6
:1041C0000EA819684422883104F086FD022E04D11D
:1041D0001FA80EA9442204F07FFD0025029C039530
:1041E000029D6B7A671B01349F4234DA231C5233E1
:1041F0001D780598291CFFF78FFF09AA115C6E1125
:104200008C460696112166467143069E0EAB8919AF
:104210001F263540063101268900AE40351CCE5898
:104220003543CD50049D3F23E919061C1E405831EB
:1042300006968F796646B501069E9F433E431E4013
:1042400063460133039F2E43DBB28E7113549F42AA
:10425000C6DA0393C4E7049B039E0027F6B26533D6
:1042600006961E70049702970597954B059E1A684F
:10427000937A9E4200DBA1E0059C1319583319780C
:104280000123081C20381D1C83408D409801039C8D
:10429000AC468009002C18D0013C442363430EAD8A
:1042A00000265E55EB181D1C1F2905DC5F6A66465B
:1042B0001E62BB0E9B0606E01E626F6A8301BE0E85
:1042C0009B09B60633436B62E4E77E4B527A19686A
:1042D000231C934210DAC818583085794426A80662
:1042E000AD097543049F800E281801370EADFF18E5
:1042F000281807710133ECE7734B049E1B68B6184E
:104300001A1C8A32893317781D78FF06AD06049689
:10431000FF0EAD0EFEF730FE002813D06B4E882046
:1043200031780137C9B204F057FC31784743C9B23C
:10433000882004F051FC02354543013F023D002630
:10434000781C03D03E1E1F2E00DD1F263F2D01DDF1
:104350003F2502E0EB43DB171D40029944274F4302
:104360005B4ABF1803998C421EDA4422111C614338
:104370000EAB5918301C1F23184007908878013461
:104380009843031C079803438B70281C3F23184055
:10439000079048789843031C079803434B70381CD8
:1043A00004F09AFC4437DDE7CB43029C059DDB1704
:1043B0000B40E41801350294059556E7414B029FE6
:1043C0001C68FBB2211C64310B70CB70069D00236E
:1043D0008B7105310D70517A0EAA8B420FDAE018FD
:1043E000583085794426A806AD097543049F800E90
:1043F00028180137FF18121817710133ECE7029FD4
:1044000044237B439A1A1AAE04920025039FBD42AF
:1044100018DA44276F430EA8C719786A0021820E64
:10442000920639627A62301C142204F097FC0499D7
:10443000284A013588188019391C442204F04CFCA4
:104440004436E3E7FB43DB17029D3B40EB1868343F
:10445000039323700DE01B4D211C28680422633058
:1044600004F07CFC2868211C6730042204F076FCF0
:104470000394134B00211C681322E37A0E1C133B98
:10448000DBB29A424E41F7B2059709A802271422DF
:10449000BF1B04F063FC6679251C2B1BB3421BDA9F
:1044A000E97A0598FFF738FE132800D93BE209ABFB
:1044B0001A5C0135BA4200DB35E201321A54ECE7EE
:1044C00098100020D8010020941000205400020011
:1044D00000800050D07F0050A34D03982E68012229
:1044E000331C6B331870DA70002188220EA804F098
:1044F00035FC0021142209A804F030FC9B4B0EA8C7
:1045000019684422443104F0E7FB022F04D11FA8AC
:104510000EA9442204F0E0FB0027251C04972F1B62
:104520000697637901359F423CDAAF7A0598391CCA
:10453000FFF7F2FD09A9095C0EAB0291029A442132
:104540005143091859182A1B0A71791109AA0791B0
:10455000115C11225143079A89188A1D1F210F40AF
:1045600001219200B9400F1CD1580F43D750069F2C
:104570003F23F219011C029F19400691BF01517897
:104580000797069F99430F4307991F40029B0F43CC
:1045900057700133049FDBB209AA13549F42BEDA5D
:1045A0000493BCE7049C6D36E4B201250694347094
:1045B00002956F4A029B1668013BB279934200DB79
:1045C00082E0F6182836F2790121101C20380E1CE2
:1045D000814096408901049DB4468909002D18D078
:1045E000013D44246C43029F0EA827540419201C4B
:1045F0000026266220304768BE0EB60646601F2A97
:1046000002DC60462062E9E78C01A409264346608B
:10461000E4E7564A1268D31845321478FF33A406EB
:104620005E7FA40EFEF7A8FC002812D0514F882010
:1046300039780136C9B204F0CFFA39784643C9B2A5
:10464000882004F0C9FA02344443013E023C711C44
:1046500003D0351E1F2D00DD1F253F2C01DD3F241B
:1046600002E0E343DB171C40039E039F07964426AA
:104670007E4341483618039F0798391A049FB94270
:104680001EDA442251430EAB59188F781F239F43E3
:10469000281C18403B1C03434F788B703F239F43DB
:1046A000201C18403B1C039F03434B703B2F00DD35
:1046B00039E1301C013704F00FFB44360397DAE789
:1046C000029C0134029474E7274B039D1C68029FEF
:1046D000221CEBB26C321370D370231C069DFFB208
:1046E00072331F70013B1D7009A80021142202972C
:1046F000002504F033FBA31DDD7773799D423DDA7D
:104700007319DF7A0598391CFFF706FD09AB1B5CAE
:104710000493002B0BD1A31DD97F4A1C6118DA77B3
:104720000731EBB20EAACB77013311180B710EAB28
:104730001A18127961199446012252429444624631
:104740003A310A7079111F2217400631012294462E
:104750008900BA40171CCA5865441743049ACF50C1
:10476000624409AB1A54C8E7D80100209410002015
:10477000981000205400020000800050D64B1B68A7
:1047800045331C78A406A40EFEF7F6FB00280AD0D9
:10479000D24B882019780234C9B204F01DFA444380
:1047A0000023023C03D4231E3F2B00DD3F230EAC2D
:1047B000A2781F218A436178A2703F229143666AE2
:1047C0001340029D0B436370B30E25709B060025BA
:1047D00063621AA8291C1422256204F0BFFA039F01
:1047E0003B2F00DD9FE044207843BD494422401820
:1047F0000137211C04F070FA0397BA4F03983E6802
:10480000C7B2331C70331F700D3B1B78321C7732DC
:10481000311C137057706F3109780B3A5173311C8A
:104820007B3197730B701278331C7C33301C1A70F9
:104830007D30022204F050FAAB4B13221B68291C76
:104840000293DB7A201C133BDBB29A426941CAB265
:1048500006920222521A331C733304920122DA7038
:104860001F70291C882204F079FA291C142209A837
:1048700004F074FA984B201C1968442204F02CFAB6
:10488000049D022D04D11FA8211C442204F024FA07
:10489000029C00270497029F029DE71B05976B79F6
:1048A00001349F4238DAA57A0698291CFFF734FCB8
:1048B00009A90F5C44217943029A0EAB09185918D3
:1048C000A21A0A71691109AA0791115C11225143B8
:1048D000079A89188A1D1F210D4001219200A940C5
:1048E0000D1CD1580D43D550059D3F2372195178A9
:1048F000051C99438C46B9011D40059161460D4345
:104900001D40059B01371D435570FFB209AD2F5463
:10491000049DBD42BFDABDE7331C049E75330027FA
:104920001E70029701E00020D4E0049A002A14D0FF
:10493000013A442151430EA84118CE6A00204D6A25
:1049400008628862B00E8006CB78AC0EC862202068
:10495000A40603434C62CB70E8E7634B029A1F68DE
:10496000B879BC460590029C059D131BAB4247DA03
:10497000029C61460B1B9B182F33187851100123A2
:10498000061C1940203E1F1CE5B20791B340049954
:10499000069587401E1C002930D0013944234B4323
:1049A000029C0EAD01345C55069CEB18079D64B269
:1049B0000194AC420FD01F2803DC1C6A3C431C62EC
:1049C000E9E75C6A251C3543AD01A40EAD09A406D8
:1049D0002C435C62DFE71F2803DC9C6A3C439C623B
:1049E000D9E71C1CDB6A33439B019B090193E36AF3
:1049F0009D0E019BAD062B43E362CCE70132B2E78B
:104A0000354B1B685A195D78FF32AD06577FAD0EE6
:104A1000FEF7B2FA002813D0304C882021780137F5
:104A2000C9B204F0D9F821784743C9B2882004F00C
:104A3000D3F802354543013F023D00247E1C03D0DC
:104A40003C1E1F2C00DD1F243F263F2D02DCEE43C1
:104A5000F6172E40039F44257D43214805972D18C6
:104A6000039F0598391A049FB9421FDA4422514323
:104A70000EAB59188F781F239F43201C18403B1CF6
:104A800003434F788B703F239F43301C18403B1CDF
:104A9000039F03434B703C2F00D144E7281C04F0D4
:104AA0001BF9039F443501370397D9E7029C013472
:104AB0000294022C00D038E70A4B039D1B68EAB22F
:104AC000191C7431181C0A70733000788033C87256
:104AD0001A70012031B0F0BD941000205400020083
:104AE00000800050D801002098100020F8B5164D25
:104AF000061C2B68002463331F782B68E1191A1CED
:104B0000643212780134914209DAE319442058439F
:104B10000E4B311CC018142204F020F9EDE76B3362
:104B20001F7800242B68E2196C331B7801349A42F9
:104B300009DAE31944205843044B311CC0181422ED
:104B400004F00CF9EEE7F8BDD8010020EC7F00502E
:104B5000F0B5374B85B01B6802901A1C0391633285
:104B60001578344A00201168041C8A7A94422BDAA2
:104B7000021C4F7A161ABE421FDA9E195836B679B1
:104B8000B7090096EF1944267E432B4FB4463E1CCE
:104B9000009F66440196BE06039FB60EB446BE5CF7
:104BA0003F2E00DD3F26F6B20096019E0132371CF3
:104BB0006744009E30373E70DBE7181C6530007894
:104BC00001342D18101CD0E71A1C6B321478002009
:104BD0008A79904229DA00224D790195AA421EDA9B
:104BE0009E187678B709E719039744273D1C039F61
:104BF000B6067D43AC46104DB60E2F1C019D674492
:104C000045430397029FBF187D5D3F2D00DD3F2583
:104C1000039FEDB2BE19303635700132DCE71A1C45
:104C20006D3212780130A418D2E705B0F0BDC0464D
:104C3000D80100209810002000800050F0B5A24B51
:104C400095B01C686846A379627900AF5A43131C7B
:104C50000E33DB08DB00C01A93000E33DB08DB00E9
:104C60008546C01A6D468546FD616D463D61E37916
:104C70002726191C0E319B00C9080E33C900DB081A
:104C8000401ADB008546C01A6D468546BD6100218D
:104C90006D46F869FD6004F061F8A379627900213E
:104CA0005A433869920004F059F8E2790021B86952
:104CB00004F054F8E279F8689200002104F04EF80C
:104CC0000023F3552722D05D7F4E3E2800D9C8E04F
:104CD000FFF70CFF0020FEF7D1FE2721C95D3068E9
:104CE0007961002283799A4235DA00234179541C94
:104CF0008B422EDA161C4E439E198D1CBE60012677
:104D0000AC463140614461438919C9188D006F492F
:104D10003E696D182D687D60BD68AD00A9597D683C
:104D2000A94214D27D69FE69B9687554417901259B
:104D30008E1C0D4075196C4351430134E418634EC9
:104D4000A400A419246859183D6989004C51013305
:104D5000CCE7221CC6E7FEF791FD5B4B27261B68BC
:104D6000F65D002278613B60BE607A603D687E68D7
:104D7000AB7A9E421CDAFE68940035197E69111CDC
:104D80003419002338685A18407A83420CDA9A00A2
:104D9000A858A658B04205D2BE69B8687618F05433
:104DA000A658AE500133EDE7796801317960DDE74F
:104DB000012529212A220024CD55D55528202B2331
:104DC000391C3A1CC555DD552C261D23201C2831C5
:104DD0002732BC85F35500F0DBFD3B4E3C63336866
:104DE000BC869A793020C2555B7931211A1CCB558B
:104DF0002A400233D31833203222D355C25D7F219B
:104E00008A43042002433321CA5531499B00512271
:104E10003420C2555A18391C201C303100F0B8FD1E
:104E200033683822BC63BC87D555DB793B203925F4
:104E30003A26F355EB55C35D7F218B430422134380
:104E4000C519391C2B70201C5A2338313C267A692D
:104E5000F35500F09DFD2720C35DC11901330B7090
:104E600030E7391C4031002433683C648C809A79E7
:104E70007F250A705B79FA694B708B70CB780820BC
:104E8000AB4301252B43CB701D230B7100F080FD3C
:104E9000391C48313368BC648C800D70DB797F2607
:104EA0004B708B70CB78BA69B3431D4308201E2327
:104EB0000B71CD7000F06CFDF869B969FFF748FE21
:104EC000BD4615B0F0BDC04698100020004000500F
:104ED0000440005044235843044B111CC018C278AE
:104EE0000F2319409A430A43C27070470080005054
:104EF00038B5051C141CFEF73FF8002808D00A4BF3
:104F0000882019780234C9B203F066FE4443023C9B
:104F100044206843054A3F23801802781C409A4386
:104F20001443047038BDC046540002000180005094
:104F300010B5041CFEF720F8002808D0084B882084
:104F400019780434C9B203F047FE4443043CA0235B
:104F5000DB05198A1F22144091430C431C8210BDAB
:104F60005400020030B50F4B1B689979884203DA70
:104F70001B182833D87914E05A798D18411AA842A1
:104F800002DA5B18D87A0CE09C7A8A1A2D19A842AA
:104F900003DA9B185833187803E0141B1B1950339D
:104FA000D87830BD98100020F0B5DA4D99B02B6854
:104FB000A02459799A7900AF8A18597A9B7A5218A5
:104FC000D3181A1C5A43E405A668BB62D31DDB083C
:104FD000DB006846C01A85466B46FF21BB6103F0C3
:104FE000BDFEFF20FFF77EF8CB496A46081AF8603D
:104FF000B86AF6B2C000031C0E33DB08DB00D21A1D
:105000009546BA6A78619200131C0A33DB08684639
:10501000DB007862C01A85466B463A613B6200222B
:105020000023BA63FB63BD4BE2681340E3602B6867
:105030005C79B84B013C1B68611C14D01B19381CEF
:10504000D97A5830202203F029FEB86D6021830000
:10505000C919CB18FA6D283B0121186891400A1C28
:1050600002431A60E5E79C79AA4B013C1B68621C6D
:1050700015D01B192833381CD9795830202203F059
:105080000DFEBA6D60209300C019FA6DC31801219E
:10509000283B91400A1C19680A431A60E4E75C7ACD
:1050A0009C4B013C1B68611C15D01B195033381CEC
:1050B000D9785830202203F0F1FDB86D60218300CB
:1050C000C919CB18FA6D283B0121186891400A1CB8
:1050D00002431A60E4E79C7A013C621C17D08D4BB6
:1050E000381C1B6858301B1958331978202203F0DC
:1050F000D5FDBA6D60209300C019FA6DC318012167
:10510000283B91400A1C19680A431A60E4E7FF2310
:105110009E1BE6235E43824C3419BC60BC69FC6173
:1051200000247C637C6BB86A844200DBE1E00021F0
:105130007A69786A03F012FEA02400213A69386A7D
:1051400003F00CFEE40500232363636B9B0E9B06B8
:105150006363BD6BA563F86BF862E36B86019B0E1E
:10516000B6099B063343E3636420FEF7BBFFFDF7FC
:105170007BFF786BFFF7F6FEC1B2381C503020225F
:1051800003F08CFDB96BFA6B7B6D39647A643A6D10
:105190000121994060200B1CC01991004118081C86
:1051A000203802689A430260386D131C00280AD028
:1051B00028390A6853409A01636B92099B0E9B063B
:1051C0001343636301E06B402363A024E405A563FC
:1051D000E36B0A209B0E9B061E43E663FEF782FFED
:1051E000FDF742FFE26B8023DB041343E363396C7A
:1051F000FA6A4D40A5637B6C01265A40E36B92012D
:105200009B0E92099B061343E363FEF7CBFD7C6C78
:105210003D6C7B6AA446434AFC689168A14214DB5A
:10522000414A644610685268284022405C689442B3
:1052300003D3F0D11C688442EDD23C6ADA60B2003C
:105240009860A15001360833E5E7FEF7D5FDA023AD
:10525000DB05D96B354A0A40DA63012E41D0741E52
:10526000786AE4000419013E002E3AD0231C083B62
:105270001A6821685B6891436268BD6A9A43B3000B
:10528000B964FA64013DFB627A6B954227D0281C11
:10529000FFF768FE011C381C5830202203F0FEFC8A
:1052A000FB6D0122B86D9A406021131CC919820060
:1052B0008A18183A12681A420FD0FB6A3A6AB9681B
:1052C000D258154B1A489B1A3B6303F085FC011C0E
:1052D000386B03F033FCF9694855013DD4E7083CCD
:1052E000C1E77C6BB86A01347C63FC692418FC61FB
:1052F00018E7C3B2381C5830037043708370002322
:10530000C3700371B9690123437100F0E7F8BD462A
:1053100019B0F0BD98100020FFFFFF00FFFF0FFF46
:105320005C5D000010E000E040000050FFFFFFFB6C
:1053300040420F00014B18607047C046A410002087
:10534000014B18687047C046A4100020014B18603C
:105350007047C046A0100020014B18687047C04637
:10536000A0100020014B18687047C046DC010020E7
:10537000F7B5334F73467146381C0193FEF765FE4F
:10538000FBF72CFC009001F077FA061CFDF7D0FD2E
:105390002C4D1022041C0099286803F09DFC3288D3
:1053A0002B68381C1A74120A5A74B2889A74120A3A
:1053B000DA74254A12680532D27F002A03D0A27916
:1053C0001A75627902E062791A75A2795A75E279E2
:1053D0009A751E4A6B6812881A70120A5A701C4A13
:1053E00052889A70120ADA701A4A52881A71120A8E
:1053F0005A71194AD2889A71120ADA71174AAB683F
:10540000920A1A70164A920A5A70164A920A9A70AA
:10541000154A920ADA70154A920A1A71144A920AC7
:105420005A71144A920A9A71134A0199920ADA71CE
:10543000A023DB05DA7C6B691A70FEF71DFEF7BD51
:1054400011530000E0010020A8030020FE0300002B
:10545000FC930000FCAB0000F8BF0000000000005F
:10546000000400000004000000940000009400000C
:1054700000AC000000AC000000C00000F7B50A4C12
:105480007146061C201C7546FEF7DFFD074A69467B
:1054900081CA81C16B46B600F658201C291CFEF754
:1054A000EBFD301CFEBDC0461D540000BC8D00004D
:1054B00070B5084C7146201C7646FEF7C6FD064BBB
:1054C000201CDB69311C5D78EDB2FEF7D5FD281C90
:1054D00070BDC04651540000E0010020F8B5144DE5
:1054E000041C0F1C281C71467646FEF7AEFD114BBE
:1054F000FF215A6A117010499C620F60A0782778CA
:10550000596B474320793F1860794006400E784335
:1055100008609869A0210170D969281C1378FF2BB5
:1055200002D10B78022BF9D0311CFEF7A5FDF8BD96
:105530007D540000E00100200405002038B50D4C2A
:105540007146201C7546FEF780FD0B4AD1694B78E9
:105550000A49DBB20B72012B05D0022B05D19369EE
:1055600001225A7001E0FDF75BFE291C201CFEF7AA
:1055700083FD38BDDD540000E0010020040500205B
:1055800038B50D4C7146201C7546FEF75EFD0B4B81
:10559000DB68002B0BD00A4ADBB2106C7F2119406C
:1055A00048320170937001335370FFF7C7FF291C15
:1055B000201CFEF761FD38BD2155000004050020C8
:1055C000E001002038B50C4C7146201C7546FEF7F2
:1055D0003CFD0A4B1B7A012B06D0022B06D1084B4F
:1055E00000229B695A7001E0FDF72CFE291C201C4B
:1055F000FEF742FD38BDC046655500000405002099
:10560000E0010020F7B5254E7346301C714601932A
:10561000FEF71BFD224C0025224E337A012B07D0CA
:10562000002B25D0022B24D11F4B9B695D7820E0F5
:10563000FDF718FE051C002C0CD1FDF703FE2E23F0
:10564000FF33013B002B01D0C046FAE7FDF7E8FD30
:10565000134C0BE0124A944208D0002806D12E23A6
:10566000FF33013B002B01D0C046FAE7013C00E0CC
:105670001D1C0D4FFA695378327A9A4206D0FFF713
:10568000A1FFFB69074A5B78137201E0002DC3D1CB
:1056900002480199FEF7F0FCF7BDC046A555000091
:1056A000FFFF000004050020E0010020F7B5164DC3
:1056B0007346071C0E1C281C71460193FEF7C5FC9F
:1056C000FFF7A0FF114C8022236C52421978606CC6
:1056D0000A431A70391C321C03F0FEFA236CF6B22E
:1056E00018787F229043311C1140021C0A431A7023
:1056F0004834A670FFF722FFFFF784FF281C0199AA
:10570000FEF7BAFCF7BDC0464D560000E001002090
:10571000F8B5FBF763FA01F0AFF8FDF709FC194C97
:10572000656B03F049F96860FFF722FE164DE36BE5
:105730002A681088020A5A711871FFF79FFEE36BFE
:10574000C6B29E712B6801365F6803374743381C29
:1057500000F0E9F93A1C0021051C206403F0FEFA70
:10576000231C4833013500225E7065649A7003F093
:105770001DF9064B5860A023DB059A7CE36C1A7078
:10578000F8BDC046E0010020A41000200405002060
:10579000024BDB691878C0B27047C046E0010020B8
:1057A000024BDB699878C0B27047C046E001002028
:1057B000014BDB6998707047E0010020024BDB6908
:1057C000D878C0B27047C046E0010020014BDB69C9
:1057D000D8707047E0010020014BDB6958687047C2
:1057E000E0010020024BDB695A6858607047C046F0
:1057F000E0010020024BDB69187AC0B27047C04656
:10580000E0010020014BDB6918727047E0010020C5
:10581000024BDB69587AC0B27047C046E0010020F5
:10582000014BDB6958727047E0010020024BDB69D5
:10583000D87AC0B27047C046E0010020014BDB6956
:10584000D8727047E0010020024BDB69987AC0B241
:105850007047C046E0010020014BDB699872704739
:10586000E0010020024BDB69187BC0B27047C046E4
:10587000E0010020014BDB6918737047E001002054
:10588000024BDB69587BC0B27047C046E001002084
:10589000014BDB6958737047E0010020034BA022E5
:1058A0009B691A701A78A02AFCD07047E00100208A
:1058B000034BC2B29B691A701A788242FCD07047BF
:1058C000E0010020014B5B6A18707047E001002086
:1058D000024B5B6A1878C0B27047C046E0010020F6
:1058E000014B1B6818887047A410002008B5FFF70B
:1058F00089FE024B0022DA6008BDC0460405002084
:1059000070B5074B074CDA6BE668011C9579586C4B
:105910002A1C8019751903F0DFF9E56070BDC046D7
:10592000E00100200405002073B56C46E271164AC0
:105930000734556D2E78864224D1FF2028701366D7
:10594000131C94331B6820789B6880009165D46594
:1059500018710E4B06980C7818608878536B60436A
:105960000C79497900194906490E4143196091693A
:10597000A0230B70516DD2690B78FF2B02D11378E5
:10598000002BF9D073BDC046E001002004050020C3
:1059900070B5144C636B1D79EDB2012D21D185409A
:1059A00058781E78000230439E7836043043DE7803
:1059B00036063043284214D0FF2018710A48A163EC
:1059C00002608C780D78C9786C434906490E074A05
:1059D0006143506B92690160772111701A79FF2A37
:1059E000FCD070BD6002002004050020E001002012
:1059F000014BDB6B1878704760020020014BDB6BBA
:105A00001870704760020020014BDB6B58787047BC
:105A100060020020014BDB6B587070476002002071
:105A2000014BDB6B9878704760020020014BDB6B09
:105A30009870704760020020014BDB6BD87870478C
:105A400060020020014BDB6BD870704760020020C1
:105A5000002303600B601B4BF7B59A4230DC131236
:105A6000194C122B1BD89B00E418646E002C27D015
:105A7000E368013B5D1C23D0D5B2019565681E1C0F
:105A8000EF5C019D013BED1BF4D42768B300DB59AB
:105A9000002B15D05B190360A3689B5D0EE0A36B20
:105AA000266B013B0CD35D00755B551BF9D4E66A90
:105AB0009B00F25852190260626BD3585D1B0D6057
:105AC000F7BDC046FFEF0000E0010020C02208B58E
:105AD000D2000B4B904206D19B691A78052A0DD053
